{
	"createContractPatient.sol": {
		"Patient": {
			"abi": [
				{
					"inputs": [
						{
							"internalType": "string",
							"name": "_recordID",
							"type": "string"
						},
						{
							"internalType": "string",
							"name": "_patientName",
							"type": "string"
						},
						{
							"internalType": "string",
							"name": "_diagnosis",
							"type": "string"
						},
						{
							"internalType": "string",
							"name": "_treatment",
							"type": "string"
						},
						{
							"internalType": "uint256",
							"name": "_date",
							"type": "uint256"
						}
					],
					"name": "addPatientRecord",
					"outputs": [],
					"stateMutability": "nonpayable",
					"type": "function"
				},
				{
					"inputs": [
						{
							"internalType": "string",
							"name": "_recordID",
							"type": "string"
						}
					],
					"name": "getPatientRecord",
					"outputs": [
						{
							"internalType": "string",
							"name": "patientName",
							"type": "string"
						},
						{
							"internalType": "string",
							"name": "diagnosis",
							"type": "string"
						},
						{
							"internalType": "string",
							"name": "treatment",
							"type": "string"
						},
						{
							"internalType": "uint256",
							"name": "date",
							"type": "uint256"
						}
					],
					"stateMutability": "view",
					"type": "function"
				},
				{
					"inputs": [
						{
							"internalType": "string",
							"name": "",
							"type": "string"
						}
					],
					"name": "patientRecords",
					"outputs": [
						{
							"internalType": "string",
							"name": "recordID",
							"type": "string"
						},
						{
							"internalType": "string",
							"name": "patientName",
							"type": "string"
						},
						{
							"internalType": "string",
							"name": "diagnosis",
							"type": "string"
						},
						{
							"internalType": "string",
							"name": "treatment",
							"type": "string"
						},
						{
							"internalType": "uint256",
							"name": "date",
							"type": "uint256"
						}
					],
					"stateMutability": "view",
					"type": "function"
				}
			],
			"devdoc": {
				"kind": "dev",
				"methods": {},
				"version": 1
			},
			"evm": {
				"assembly": "    /* \"createContractPatient.sol\":60:1148  contract Patient {... */\n  mstore(0x40, 0x80)\n  callvalue\n  dup1\n  iszero\n  tag_1\n  jumpi\n  0x00\n  dup1\n  revert\ntag_1:\n  pop\n  dataSize(sub_0)\n  dup1\n  dataOffset(sub_0)\n  0x00\n  codecopy\n  0x00\n  return\nstop\n\nsub_0: assembly {\n        /* \"createContractPatient.sol\":60:1148  contract Patient {... */\n      mstore(0x40, 0x80)\n      callvalue\n      dup1\n      iszero\n      tag_1\n      jumpi\n      0x00\n      dup1\n      revert\n    tag_1:\n      pop\n      jumpi(tag_2, lt(calldatasize, 0x04))\n      shr(0xe0, calldataload(0x00))\n      dup1\n      0x11bd30a1\n      eq\n      tag_3\n      jumpi\n      dup1\n      0x1b23cc71\n      eq\n      tag_4\n      jumpi\n      dup1\n      0xd2303dad\n      eq\n      tag_5\n      jumpi\n    tag_2:\n      0x00\n      dup1\n      revert\n        /* \"createContractPatient.sol\":725:1145  function getPatientRecord(string memory _recordID) public view returns (... */\n    tag_3:\n      tag_6\n      0x04\n      dup1\n      calldatasize\n      sub\n      dup2\n      add\n      swap1\n      tag_7\n      swap2\n      swap1\n      tag_8\n      jump\t// in\n    tag_7:\n      tag_9\n      jump\t// in\n    tag_6:\n      mload(0x40)\n      tag_10\n      swap5\n      swap4\n      swap3\n      swap2\n      swap1\n      tag_11\n      jump\t// in\n    tag_10:\n      mload(0x40)\n      dup1\n      swap2\n      sub\n      swap1\n      return\n        /* \"createContractPatient.sol\":320:717  function addPatientRecord(... */\n    tag_4:\n      tag_12\n      0x04\n      dup1\n      calldatasize\n      sub\n      dup2\n      add\n      swap1\n      tag_13\n      swap2\n      swap1\n      tag_14\n      jump\t// in\n    tag_13:\n      tag_15\n      jump\t// in\n    tag_12:\n      stop\n        /* \"createContractPatient.sol\":257:311  mapping(string => PatientRecord) public patientRecords */\n    tag_5:\n      tag_16\n      0x04\n      dup1\n      calldatasize\n      sub\n      dup2\n      add\n      swap1\n      tag_17\n      swap2\n      swap1\n      tag_8\n      jump\t// in\n    tag_17:\n      tag_18\n      jump\t// in\n    tag_16:\n      mload(0x40)\n      tag_19\n      swap6\n      swap5\n      swap4\n      swap3\n      swap2\n      swap1\n      tag_20\n      jump\t// in\n    tag_19:\n      mload(0x40)\n      dup1\n      swap2\n      sub\n      swap1\n      return\n        /* \"createContractPatient.sol\":725:1145  function getPatientRecord(string memory _recordID) public view returns (... */\n    tag_9:\n        /* \"createContractPatient.sol\":807:832  string memory patientName */\n      0x60\n        /* \"createContractPatient.sol\":843:866  string memory diagnosis */\n      dup1\n        /* \"createContractPatient.sol\":877:900  string memory treatment */\n      0x60\n        /* \"createContractPatient.sol\":911:923  uint256 date */\n      0x00\n        /* \"createContractPatient.sol\":942:969  PatientRecord memory record */\n      dup1\n        /* \"createContractPatient.sol\":972:986  patientRecords */\n      0x00\n        /* \"createContractPatient.sol\":987:996  _recordID */\n      dup7\n        /* \"createContractPatient.sol\":972:997  patientRecords[_recordID] */\n      mload(0x40)\n      tag_22\n      swap2\n      swap1\n      tag_23\n      jump\t// in\n    tag_22:\n      swap1\n      dup2\n      mstore\n      0x20\n      add\n      mload(0x40)\n      dup1\n      swap2\n      sub\n      swap1\n      keccak256\n        /* \"createContractPatient.sol\":942:997  PatientRecord memory record = patientRecords[_recordID] */\n      mload(0x40)\n      dup1\n      0xa0\n      add\n      0x40\n      mstore\n      swap1\n      dup2\n      0x00\n      dup3\n      add\n      dup1\n      sload\n      tag_24\n      swap1\n      tag_25\n      jump\t// in\n    tag_24:\n      dup1\n      0x1f\n      add\n      0x20\n      dup1\n      swap2\n      div\n      mul\n      0x20\n      add\n      mload(0x40)\n      swap1\n      dup2\n      add\n      0x40\n      mstore\n      dup1\n      swap3\n      swap2\n      swap1\n      dup2\n      dup2\n      mstore\n      0x20\n      add\n      dup3\n      dup1\n      sload\n      tag_26\n      swap1\n      tag_25\n      jump\t// in\n    tag_26:\n      dup1\n      iszero\n      tag_27\n      jumpi\n      dup1\n      0x1f\n      lt\n      tag_28\n      jumpi\n      0x0100\n      dup1\n      dup4\n      sload\n      div\n      mul\n      dup4\n      mstore\n      swap2\n      0x20\n      add\n      swap2\n      jump(tag_27)\n    tag_28:\n      dup3\n      add\n      swap2\n      swap1\n      0x00\n      mstore\n      keccak256(0x00, 0x20)\n      swap1\n    tag_29:\n      dup2\n      sload\n      dup2\n      mstore\n      swap1\n      0x01\n      add\n      swap1\n      0x20\n      add\n      dup1\n      dup4\n      gt\n      tag_29\n      jumpi\n      dup3\n      swap1\n      sub\n      0x1f\n      and\n      dup3\n      add\n      swap2\n    tag_27:\n      pop\n      pop\n      pop\n      pop\n      pop\n      dup2\n      mstore\n      0x20\n      add\n      0x01\n      dup3\n      add\n      dup1\n      sload\n      tag_30\n      swap1\n      tag_25\n      jump\t// in\n    tag_30:\n      dup1\n      0x1f\n      add\n      0x20\n      dup1\n      swap2\n      div\n      mul\n      0x20\n      add\n      mload(0x40)\n      swap1\n      dup2\n      add\n      0x40\n      mstore\n      dup1\n      swap3\n      swap2\n      swap1\n      dup2\n      dup2\n      mstore\n      0x20\n      add\n      dup3\n      dup1\n      sload\n      tag_31\n      swap1\n      tag_25\n      jump\t// in\n    tag_31:\n      dup1\n      iszero\n      tag_32\n      jumpi\n      dup1\n      0x1f\n      lt\n      tag_33\n      jumpi\n      0x0100\n      dup1\n      dup4\n      sload\n      div\n      mul\n      dup4\n      mstore\n      swap2\n      0x20\n      add\n      swap2\n      jump(tag_32)\n    tag_33:\n      dup3\n      add\n      swap2\n      swap1\n      0x00\n      mstore\n      keccak256(0x00, 0x20)\n      swap1\n    tag_34:\n      dup2\n      sload\n      dup2\n      mstore\n      swap1\n      0x01\n      add\n      swap1\n      0x20\n      add\n      dup1\n      dup4\n      gt\n      tag_34\n      jumpi\n      dup3\n      swap1\n      sub\n      0x1f\n      and\n      dup3\n      add\n      swap2\n    tag_32:\n      pop\n      pop\n      pop\n      pop\n      pop\n      dup2\n      mstore\n      0x20\n      add\n      0x02\n      dup3\n      add\n      dup1\n      sload\n      tag_35\n      swap1\n      tag_25\n      jump\t// in\n    tag_35:\n      dup1\n      0x1f\n      add\n      0x20\n      dup1\n      swap2\n      div\n      mul\n      0x20\n      add\n      mload(0x40)\n      swap1\n      dup2\n      add\n      0x40\n      mstore\n      dup1\n      swap3\n      swap2\n      swap1\n      dup2\n      dup2\n      mstore\n      0x20\n      add\n      dup3\n      dup1\n      sload\n      tag_36\n      swap1\n      tag_25\n      jump\t// in\n    tag_36:\n      dup1\n      iszero\n      tag_37\n      jumpi\n      dup1\n      0x1f\n      lt\n      tag_38\n      jumpi\n      0x0100\n      dup1\n      dup4\n      sload\n      div\n      mul\n      dup4\n      mstore\n      swap2\n      0x20\n      add\n      swap2\n      jump(tag_37)\n    tag_38:\n      dup3\n      add\n      swap2\n      swap1\n      0x00\n      mstore\n      keccak256(0x00, 0x20)\n      swap1\n    tag_39:\n      dup2\n      sload\n      dup2\n      mstore\n      swap1\n      0x01\n      add\n      swap1\n      0x20\n      add\n      dup1\n      dup4\n      gt\n      tag_39\n      jumpi\n      dup3\n      swap1\n      sub\n      0x1f\n      and\n      dup3\n      add\n      swap2\n    tag_37:\n      pop\n      pop\n      pop\n      pop\n      pop\n      dup2\n      mstore\n      0x20\n      add\n      0x03\n      dup3\n      add\n      dup1\n      sload\n      tag_40\n      swap1\n      tag_25\n      jump\t// in\n    tag_40:\n      dup1\n      0x1f\n      add\n      0x20\n      dup1\n      swap2\n      div\n      mul\n      0x20\n      add\n      mload(0x40)\n      swap1\n      dup2\n      add\n      0x40\n      mstore\n      dup1\n      swap3\n      swap2\n      swap1\n      dup2\n      dup2\n      mstore\n      0x20\n      add\n      dup3\n      dup1\n      sload\n      tag_41\n      swap1\n      tag_25\n      jump\t// in\n    tag_41:\n      dup1\n      iszero\n      tag_42\n      jumpi\n      dup1\n      0x1f\n      lt\n      tag_43\n      jumpi\n      0x0100\n      dup1\n      dup4\n      sload\n      div\n      mul\n      dup4\n      mstore\n      swap2\n      0x20\n      add\n      swap2\n      jump(tag_42)\n    tag_43:\n      dup3\n      add\n      swap2\n      swap1\n      0x00\n      mstore\n      keccak256(0x00, 0x20)\n      swap1\n    tag_44:\n      dup2\n      sload\n      dup2\n      mstore\n      swap1\n      0x01\n      add\n      swap1\n      0x20\n      add\n      dup1\n      dup4\n      gt\n      tag_44\n      jumpi\n      dup3\n      swap1\n      sub\n      0x1f\n      and\n      dup3\n      add\n      swap2\n    tag_42:\n      pop\n      pop\n      pop\n      pop\n      pop\n      dup2\n      mstore\n      0x20\n      add\n      0x04\n      dup3\n      add\n      sload\n      dup2\n      mstore\n      pop\n      pop\n      swap1\n      pop\n        /* \"createContractPatient.sol\":1030:1036  record */\n      dup1\n        /* \"createContractPatient.sol\":1030:1048  record.patientName */\n      0x20\n      add\n      mload\n        /* \"createContractPatient.sol\":1063:1069  record */\n      dup2\n        /* \"createContractPatient.sol\":1063:1079  record.diagnosis */\n      0x40\n      add\n      mload\n        /* \"createContractPatient.sol\":1094:1100  record */\n      dup3\n        /* \"createContractPatient.sol\":1094:1110  record.treatment */\n      0x60\n      add\n      mload\n        /* \"createContractPatient.sol\":1125:1131  record */\n      dup4\n        /* \"createContractPatient.sol\":1125:1136  record.date */\n      0x80\n      add\n      mload\n        /* \"createContractPatient.sol\":1008:1141  return (... */\n      swap5\n      pop\n      swap5\n      pop\n      swap5\n      pop\n      swap5\n      pop\n      pop\n        /* \"createContractPatient.sol\":725:1145  function getPatientRecord(string memory _recordID) public view returns (... */\n      swap2\n      swap4\n      pop\n      swap2\n      swap4\n      jump\t// out\n        /* \"createContractPatient.sol\":320:717  function addPatientRecord(... */\n    tag_15:\n        /* \"createContractPatient.sol\":564:709  PatientRecord(... */\n      mload(0x40)\n      dup1\n      0xa0\n      add\n      0x40\n      mstore\n      dup1\n        /* \"createContractPatient.sol\":592:601  _recordID */\n      dup7\n        /* \"createContractPatient.sol\":564:709  PatientRecord(... */\n      dup2\n      mstore\n      0x20\n      add\n        /* \"createContractPatient.sol\":616:628  _patientName */\n      dup6\n        /* \"createContractPatient.sol\":564:709  PatientRecord(... */\n      dup2\n      mstore\n      0x20\n      add\n        /* \"createContractPatient.sol\":643:653  _diagnosis */\n      dup5\n        /* \"createContractPatient.sol\":564:709  PatientRecord(... */\n      dup2\n      mstore\n      0x20\n      add\n        /* \"createContractPatient.sol\":668:678  _treatment */\n      dup4\n        /* \"createContractPatient.sol\":564:709  PatientRecord(... */\n      dup2\n      mstore\n      0x20\n      add\n        /* \"createContractPatient.sol\":693:698  _date */\n      dup3\n        /* \"createContractPatient.sol\":564:709  PatientRecord(... */\n      dup2\n      mstore\n      pop\n        /* \"createContractPatient.sol\":536:550  patientRecords */\n      0x00\n        /* \"createContractPatient.sol\":551:560  _recordID */\n      dup7\n        /* \"createContractPatient.sol\":536:561  patientRecords[_recordID] */\n      mload(0x40)\n      tag_46\n      swap2\n      swap1\n      tag_23\n      jump\t// in\n    tag_46:\n      swap1\n      dup2\n      mstore\n      0x20\n      add\n      mload(0x40)\n      dup1\n      swap2\n      sub\n      swap1\n      keccak256\n        /* \"createContractPatient.sol\":536:709  patientRecords[_recordID] = PatientRecord(... */\n      0x00\n      dup3\n      add\n      mload\n      dup2\n      0x00\n      add\n      swap1\n      dup2\n      tag_47\n      swap2\n      swap1\n      tag_48\n      jump\t// in\n    tag_47:\n      pop\n      0x20\n      dup3\n      add\n      mload\n      dup2\n      0x01\n      add\n      swap1\n      dup2\n      tag_49\n      swap2\n      swap1\n      tag_48\n      jump\t// in\n    tag_49:\n      pop\n      0x40\n      dup3\n      add\n      mload\n      dup2\n      0x02\n      add\n      swap1\n      dup2\n      tag_50\n      swap2\n      swap1\n      tag_48\n      jump\t// in\n    tag_50:\n      pop\n      0x60\n      dup3\n      add\n      mload\n      dup2\n      0x03\n      add\n      swap1\n      dup2\n      tag_51\n      swap2\n      swap1\n      tag_48\n      jump\t// in\n    tag_51:\n      pop\n      0x80\n      dup3\n      add\n      mload\n      dup2\n      0x04\n      add\n      sstore\n      swap1\n      pop\n      pop\n        /* \"createContractPatient.sol\":320:717  function addPatientRecord(... */\n      pop\n      pop\n      pop\n      pop\n      pop\n      jump\t// out\n        /* \"createContractPatient.sol\":257:311  mapping(string => PatientRecord) public patientRecords */\n    tag_18:\n      0x00\n      dup2\n      dup1\n      mload\n      0x20\n      dup2\n      add\n      dup3\n      add\n      dup1\n      mload\n      dup5\n      dup3\n      mstore\n      0x20\n      dup4\n      add\n      0x20\n      dup6\n      add\n      keccak256\n      dup2\n      dup4\n      mstore\n      dup1\n      swap6\n      pop\n      pop\n      pop\n      pop\n      pop\n      pop\n      0x00\n      swap2\n      pop\n      swap1\n      pop\n      dup1\n      0x00\n      add\n      dup1\n      sload\n      tag_52\n      swap1\n      tag_25\n      jump\t// in\n    tag_52:\n      dup1\n      0x1f\n      add\n      0x20\n      dup1\n      swap2\n      div\n      mul\n      0x20\n      add\n      mload(0x40)\n      swap1\n      dup2\n      add\n      0x40\n      mstore\n      dup1\n      swap3\n      swap2\n      swap1\n      dup2\n      dup2\n      mstore\n      0x20\n      add\n      dup3\n      dup1\n      sload\n      tag_53\n      swap1\n      tag_25\n      jump\t// in\n    tag_53:\n      dup1\n      iszero\n      tag_54\n      jumpi\n      dup1\n      0x1f\n      lt\n      tag_55\n      jumpi\n      0x0100\n      dup1\n      dup4\n      sload\n      div\n      mul\n      dup4\n      mstore\n      swap2\n      0x20\n      add\n      swap2\n      jump(tag_54)\n    tag_55:\n      dup3\n      add\n      swap2\n      swap1\n      0x00\n      mstore\n      keccak256(0x00, 0x20)\n      swap1\n    tag_56:\n      dup2\n      sload\n      dup2\n      mstore\n      swap1\n      0x01\n      add\n      swap1\n      0x20\n      add\n      dup1\n      dup4\n      gt\n      tag_56\n      jumpi\n      dup3\n      swap1\n      sub\n      0x1f\n      and\n      dup3\n      add\n      swap2\n    tag_54:\n      pop\n      pop\n      pop\n      pop\n      pop\n      swap1\n      dup1\n      0x01\n      add\n      dup1\n      sload\n      tag_57\n      swap1\n      tag_25\n      jump\t// in\n    tag_57:\n      dup1\n      0x1f\n      add\n      0x20\n      dup1\n      swap2\n      div\n      mul\n      0x20\n      add\n      mload(0x40)\n      swap1\n      dup2\n      add\n      0x40\n      mstore\n      dup1\n      swap3\n      swap2\n      swap1\n      dup2\n      dup2\n      mstore\n      0x20\n      add\n      dup3\n      dup1\n      sload\n      tag_58\n      swap1\n      tag_25\n      jump\t// in\n    tag_58:\n      dup1\n      iszero\n      tag_59\n      jumpi\n      dup1\n      0x1f\n      lt\n      tag_60\n      jumpi\n      0x0100\n      dup1\n      dup4\n      sload\n      div\n      mul\n      dup4\n      mstore\n      swap2\n      0x20\n      add\n      swap2\n      jump(tag_59)\n    tag_60:\n      dup3\n      add\n      swap2\n      swap1\n      0x00\n      mstore\n      keccak256(0x00, 0x20)\n      swap1\n    tag_61:\n      dup2\n      sload\n      dup2\n      mstore\n      swap1\n      0x01\n      add\n      swap1\n      0x20\n      add\n      dup1\n      dup4\n      gt\n      tag_61\n      jumpi\n      dup3\n      swap1\n      sub\n      0x1f\n      and\n      dup3\n      add\n      swap2\n    tag_59:\n      pop\n      pop\n      pop\n      pop\n      pop\n      swap1\n      dup1\n      0x02\n      add\n      dup1\n      sload\n      tag_62\n      swap1\n      tag_25\n      jump\t// in\n    tag_62:\n      dup1\n      0x1f\n      add\n      0x20\n      dup1\n      swap2\n      div\n      mul\n      0x20\n      add\n      mload(0x40)\n      swap1\n      dup2\n      add\n      0x40\n      mstore\n      dup1\n      swap3\n      swap2\n      swap1\n      dup2\n      dup2\n      mstore\n      0x20\n      add\n      dup3\n      dup1\n      sload\n      tag_63\n      swap1\n      tag_25\n      jump\t// in\n    tag_63:\n      dup1\n      iszero\n      tag_64\n      jumpi\n      dup1\n      0x1f\n      lt\n      tag_65\n      jumpi\n      0x0100\n      dup1\n      dup4\n      sload\n      div\n      mul\n      dup4\n      mstore\n      swap2\n      0x20\n      add\n      swap2\n      jump(tag_64)\n    tag_65:\n      dup3\n      add\n      swap2\n      swap1\n      0x00\n      mstore\n      keccak256(0x00, 0x20)\n      swap1\n    tag_66:\n      dup2\n      sload\n      dup2\n      mstore\n      swap1\n      0x01\n      add\n      swap1\n      0x20\n      add\n      dup1\n      dup4\n      gt\n      tag_66\n      jumpi\n      dup3\n      swap1\n      sub\n      0x1f\n      and\n      dup3\n      add\n      swap2\n    tag_64:\n      pop\n      pop\n      pop\n      pop\n      pop\n      swap1\n      dup1\n      0x03\n      add\n      dup1\n      sload\n      tag_67\n      swap1\n      tag_25\n      jump\t// in\n    tag_67:\n      dup1\n      0x1f\n      add\n      0x20\n      dup1\n      swap2\n      div\n      mul\n      0x20\n      add\n      mload(0x40)\n      swap1\n      dup2\n      add\n      0x40\n      mstore\n      dup1\n      swap3\n      swap2\n      swap1\n      dup2\n      dup2\n      mstore\n      0x20\n      add\n      dup3\n      dup1\n      sload\n      tag_68\n      swap1\n      tag_25\n      jump\t// in\n    tag_68:\n      dup1\n      iszero\n      tag_69\n      jumpi\n      dup1\n      0x1f\n      lt\n      tag_70\n      jumpi\n      0x0100\n      dup1\n      dup4\n      sload\n      div\n      mul\n      dup4\n      mstore\n      swap2\n      0x20\n      add\n      swap2\n      jump(tag_69)\n    tag_70:\n      dup3\n      add\n      swap2\n      swap1\n      0x00\n      mstore\n      keccak256(0x00, 0x20)\n      swap1\n    tag_71:\n      dup2\n      sload\n      dup2\n      mstore\n      swap1\n      0x01\n      add\n      swap1\n      0x20\n      add\n      dup1\n      dup4\n      gt\n      tag_71\n      jumpi\n      dup3\n      swap1\n      sub\n      0x1f\n      and\n      dup3\n      add\n      swap2\n    tag_69:\n      pop\n      pop\n      pop\n      pop\n      pop\n      swap1\n      dup1\n      0x04\n      add\n      sload\n      swap1\n      pop\n      dup6\n      jump\t// out\n        /* \"#utility.yul\":7:82   */\n    tag_72:\n        /* \"#utility.yul\":40:46   */\n      0x00\n        /* \"#utility.yul\":73:75   */\n      0x40\n        /* \"#utility.yul\":67:76   */\n      mload\n        /* \"#utility.yul\":57:76   */\n      swap1\n      pop\n        /* \"#utility.yul\":7:82   */\n      swap1\n      jump\t// out\n        /* \"#utility.yul\":88:205   */\n    tag_73:\n        /* \"#utility.yul\":197:198   */\n      0x00\n        /* \"#utility.yul\":194:195   */\n      dup1\n        /* \"#utility.yul\":187:199   */\n      revert\n        /* \"#utility.yul\":211:328   */\n    tag_74:\n        /* \"#utility.yul\":320:321   */\n      0x00\n        /* \"#utility.yul\":317:318   */\n      dup1\n        /* \"#utility.yul\":310:322   */\n      revert\n        /* \"#utility.yul\":334:451   */\n    tag_75:\n        /* \"#utility.yul\":443:444   */\n      0x00\n        /* \"#utility.yul\":440:441   */\n      dup1\n        /* \"#utility.yul\":433:445   */\n      revert\n        /* \"#utility.yul\":457:574   */\n    tag_76:\n        /* \"#utility.yul\":566:567   */\n      0x00\n        /* \"#utility.yul\":563:564   */\n      dup1\n        /* \"#utility.yul\":556:568   */\n      revert\n        /* \"#utility.yul\":580:682   */\n    tag_77:\n        /* \"#utility.yul\":621:627   */\n      0x00\n        /* \"#utility.yul\":672:674   */\n      0x1f\n        /* \"#utility.yul\":668:675   */\n      not\n        /* \"#utility.yul\":663:665   */\n      0x1f\n        /* \"#utility.yul\":656:661   */\n      dup4\n        /* \"#utility.yul\":652:666   */\n      add\n        /* \"#utility.yul\":648:676   */\n      and\n        /* \"#utility.yul\":638:676   */\n      swap1\n      pop\n        /* \"#utility.yul\":580:682   */\n      swap2\n      swap1\n      pop\n      jump\t// out\n        /* \"#utility.yul\":688:868   */\n    tag_78:\n        /* \"#utility.yul\":736:813   */\n      0x4e487b7100000000000000000000000000000000000000000000000000000000\n        /* \"#utility.yul\":733:734   */\n      0x00\n        /* \"#utility.yul\":726:814   */\n      mstore\n        /* \"#utility.yul\":833:837   */\n      0x41\n        /* \"#utility.yul\":830:831   */\n      0x04\n        /* \"#utility.yul\":823:838   */\n      mstore\n        /* \"#utility.yul\":857:861   */\n      0x24\n        /* \"#utility.yul\":854:855   */\n      0x00\n        /* \"#utility.yul\":847:862   */\n      revert\n        /* \"#utility.yul\":874:1155   */\n    tag_79:\n        /* \"#utility.yul\":957:984   */\n      tag_120\n        /* \"#utility.yul\":979:983   */\n      dup3\n        /* \"#utility.yul\":957:984   */\n      tag_77\n      jump\t// in\n    tag_120:\n        /* \"#utility.yul\":949:955   */\n      dup2\n        /* \"#utility.yul\":945:985   */\n      add\n        /* \"#utility.yul\":1087:1093   */\n      dup2\n        /* \"#utility.yul\":1075:1085   */\n      dup2\n        /* \"#utility.yul\":1072:1094   */\n      lt\n        /* \"#utility.yul\":1051:1069   */\n      0xffffffffffffffff\n        /* \"#utility.yul\":1039:1049   */\n      dup3\n        /* \"#utility.yul\":1036:1070   */\n      gt\n        /* \"#utility.yul\":1033:1095   */\n      or\n        /* \"#utility.yul\":1030:1118   */\n      iszero\n      tag_121\n      jumpi\n        /* \"#utility.yul\":1098:1116   */\n      tag_122\n      tag_78\n      jump\t// in\n    tag_122:\n        /* \"#utility.yul\":1030:1118   */\n    tag_121:\n        /* \"#utility.yul\":1138:1148   */\n      dup1\n        /* \"#utility.yul\":1134:1136   */\n      0x40\n        /* \"#utility.yul\":1127:1149   */\n      mstore\n        /* \"#utility.yul\":917:1155   */\n      pop\n        /* \"#utility.yul\":874:1155   */\n      pop\n      pop\n      jump\t// out\n        /* \"#utility.yul\":1161:1290   */\n    tag_80:\n        /* \"#utility.yul\":1195:1201   */\n      0x00\n        /* \"#utility.yul\":1222:1242   */\n      tag_124\n      tag_72\n      jump\t// in\n    tag_124:\n        /* \"#utility.yul\":1212:1242   */\n      swap1\n      pop\n        /* \"#utility.yul\":1251:1284   */\n      tag_125\n        /* \"#utility.yul\":1279:1283   */\n      dup3\n        /* \"#utility.yul\":1271:1277   */\n      dup3\n        /* \"#utility.yul\":1251:1284   */\n      tag_79\n      jump\t// in\n    tag_125:\n        /* \"#utility.yul\":1161:1290   */\n      swap2\n      swap1\n      pop\n      jump\t// out\n        /* \"#utility.yul\":1296:1604   */\n    tag_81:\n        /* \"#utility.yul\":1358:1362   */\n      0x00\n        /* \"#utility.yul\":1448:1466   */\n      0xffffffffffffffff\n        /* \"#utility.yul\":1440:1446   */\n      dup3\n        /* \"#utility.yul\":1437:1467   */\n      gt\n        /* \"#utility.yul\":1434:1490   */\n      iszero\n      tag_127\n      jumpi\n        /* \"#utility.yul\":1470:1488   */\n      tag_128\n      tag_78\n      jump\t// in\n    tag_128:\n        /* \"#utility.yul\":1434:1490   */\n    tag_127:\n        /* \"#utility.yul\":1508:1537   */\n      tag_129\n        /* \"#utility.yul\":1530:1536   */\n      dup3\n        /* \"#utility.yul\":1508:1537   */\n      tag_77\n      jump\t// in\n    tag_129:\n        /* \"#utility.yul\":1500:1537   */\n      swap1\n      pop\n        /* \"#utility.yul\":1592:1596   */\n      0x20\n        /* \"#utility.yul\":1586:1590   */\n      dup2\n        /* \"#utility.yul\":1582:1597   */\n      add\n        /* \"#utility.yul\":1574:1597   */\n      swap1\n      pop\n        /* \"#utility.yul\":1296:1604   */\n      swap2\n      swap1\n      pop\n      jump\t// out\n        /* \"#utility.yul\":1610:1758   */\n    tag_82:\n        /* \"#utility.yul\":1708:1714   */\n      dup3\n        /* \"#utility.yul\":1703:1706   */\n      dup2\n        /* \"#utility.yul\":1698:1701   */\n      dup4\n        /* \"#utility.yul\":1685:1715   */\n      calldatacopy\n        /* \"#utility.yul\":1749:1750   */\n      0x00\n        /* \"#utility.yul\":1740:1746   */\n      dup4\n        /* \"#utility.yul\":1735:1738   */\n      dup4\n        /* \"#utility.yul\":1731:1747   */\n      add\n        /* \"#utility.yul\":1724:1751   */\n      mstore\n        /* \"#utility.yul\":1610:1758   */\n      pop\n      pop\n      pop\n      jump\t// out\n        /* \"#utility.yul\":1764:2189   */\n    tag_83:\n        /* \"#utility.yul\":1842:1847   */\n      0x00\n        /* \"#utility.yul\":1867:1933   */\n      tag_132\n        /* \"#utility.yul\":1883:1932   */\n      tag_133\n        /* \"#utility.yul\":1925:1931   */\n      dup5\n        /* \"#utility.yul\":1883:1932   */\n      tag_81\n      jump\t// in\n    tag_133:\n        /* \"#utility.yul\":1867:1933   */\n      tag_80\n      jump\t// in\n    tag_132:\n        /* \"#utility.yul\":1858:1933   */\n      swap1\n      pop\n        /* \"#utility.yul\":1956:1962   */\n      dup3\n        /* \"#utility.yul\":1949:1954   */\n      dup2\n        /* \"#utility.yul\":1942:1963   */\n      mstore\n        /* \"#utility.yul\":1994:1998   */\n      0x20\n        /* \"#utility.yul\":1987:1992   */\n      dup2\n        /* \"#utility.yul\":1983:1999   */\n      add\n        /* \"#utility.yul\":2032:2035   */\n      dup5\n        /* \"#utility.yul\":2023:2029   */\n      dup5\n        /* \"#utility.yul\":2018:2021   */\n      dup5\n        /* \"#utility.yul\":2014:2030   */\n      add\n        /* \"#utility.yul\":2011:2036   */\n      gt\n        /* \"#utility.yul\":2008:2120   */\n      iszero\n      tag_134\n      jumpi\n        /* \"#utility.yul\":2039:2118   */\n      tag_135\n      tag_76\n      jump\t// in\n    tag_135:\n        /* \"#utility.yul\":2008:2120   */\n    tag_134:\n        /* \"#utility.yul\":2129:2183   */\n      tag_136\n        /* \"#utility.yul\":2176:2182   */\n      dup5\n        /* \"#utility.yul\":2171:2174   */\n      dup3\n        /* \"#utility.yul\":2166:2169   */\n      dup6\n        /* \"#utility.yul\":2129:2183   */\n      tag_82\n      jump\t// in\n    tag_136:\n        /* \"#utility.yul\":1848:2189   */\n      pop\n        /* \"#utility.yul\":1764:2189   */\n      swap4\n      swap3\n      pop\n      pop\n      pop\n      jump\t// out\n        /* \"#utility.yul\":2209:2549   */\n    tag_84:\n        /* \"#utility.yul\":2265:2270   */\n      0x00\n        /* \"#utility.yul\":2314:2317   */\n      dup3\n        /* \"#utility.yul\":2307:2311   */\n      0x1f\n        /* \"#utility.yul\":2299:2305   */\n      dup4\n        /* \"#utility.yul\":2295:2312   */\n      add\n        /* \"#utility.yul\":2291:2318   */\n      slt\n        /* \"#utility.yul\":2281:2403   */\n      tag_138\n      jumpi\n        /* \"#utility.yul\":2322:2401   */\n      tag_139\n      tag_75\n      jump\t// in\n    tag_139:\n        /* \"#utility.yul\":2281:2403   */\n    tag_138:\n        /* \"#utility.yul\":2439:2445   */\n      dup2\n        /* \"#utility.yul\":2426:2446   */\n      calldataload\n        /* \"#utility.yul\":2464:2543   */\n      tag_140\n        /* \"#utility.yul\":2539:2542   */\n      dup5\n        /* \"#utility.yul\":2531:2537   */\n      dup3\n        /* \"#utility.yul\":2524:2528   */\n      0x20\n        /* \"#utility.yul\":2516:2522   */\n      dup7\n        /* \"#utility.yul\":2512:2529   */\n      add\n        /* \"#utility.yul\":2464:2543   */\n      tag_83\n      jump\t// in\n    tag_140:\n        /* \"#utility.yul\":2455:2543   */\n      swap2\n      pop\n        /* \"#utility.yul\":2271:2549   */\n      pop\n        /* \"#utility.yul\":2209:2549   */\n      swap3\n      swap2\n      pop\n      pop\n      jump\t// out\n        /* \"#utility.yul\":2555:3064   */\n    tag_8:\n        /* \"#utility.yul\":2624:2630   */\n      0x00\n        /* \"#utility.yul\":2673:2675   */\n      0x20\n        /* \"#utility.yul\":2661:2670   */\n      dup3\n        /* \"#utility.yul\":2652:2659   */\n      dup5\n        /* \"#utility.yul\":2648:2671   */\n      sub\n        /* \"#utility.yul\":2644:2676   */\n      slt\n        /* \"#utility.yul\":2641:2760   */\n      iszero\n      tag_142\n      jumpi\n        /* \"#utility.yul\":2679:2758   */\n      tag_143\n      tag_73\n      jump\t// in\n    tag_143:\n        /* \"#utility.yul\":2641:2760   */\n    tag_142:\n        /* \"#utility.yul\":2827:2828   */\n      0x00\n        /* \"#utility.yul\":2816:2825   */\n      dup3\n        /* \"#utility.yul\":2812:2829   */\n      add\n        /* \"#utility.yul\":2799:2830   */\n      calldataload\n        /* \"#utility.yul\":2857:2875   */\n      0xffffffffffffffff\n        /* \"#utility.yul\":2849:2855   */\n      dup2\n        /* \"#utility.yul\":2846:2876   */\n      gt\n        /* \"#utility.yul\":2843:2960   */\n      iszero\n      tag_144\n      jumpi\n        /* \"#utility.yul\":2879:2958   */\n      tag_145\n      tag_74\n      jump\t// in\n    tag_145:\n        /* \"#utility.yul\":2843:2960   */\n    tag_144:\n        /* \"#utility.yul\":2984:3047   */\n      tag_146\n        /* \"#utility.yul\":3039:3046   */\n      dup5\n        /* \"#utility.yul\":3030:3036   */\n      dup3\n        /* \"#utility.yul\":3019:3028   */\n      dup6\n        /* \"#utility.yul\":3015:3037   */\n      add\n        /* \"#utility.yul\":2984:3047   */\n      tag_84\n      jump\t// in\n    tag_146:\n        /* \"#utility.yul\":2974:3047   */\n      swap2\n      pop\n        /* \"#utility.yul\":2770:3057   */\n      pop\n        /* \"#utility.yul\":2555:3064   */\n      swap3\n      swap2\n      pop\n      pop\n      jump\t// out\n        /* \"#utility.yul\":3070:3169   */\n    tag_85:\n        /* \"#utility.yul\":3122:3128   */\n      0x00\n        /* \"#utility.yul\":3156:3161   */\n      dup2\n        /* \"#utility.yul\":3150:3162   */\n      mload\n        /* \"#utility.yul\":3140:3162   */\n      swap1\n      pop\n        /* \"#utility.yul\":3070:3169   */\n      swap2\n      swap1\n      pop\n      jump\t// out\n        /* \"#utility.yul\":3175:3344   */\n    tag_86:\n        /* \"#utility.yul\":3259:3270   */\n      0x00\n        /* \"#utility.yul\":3293:3299   */\n      dup3\n        /* \"#utility.yul\":3288:3291   */\n      dup3\n        /* \"#utility.yul\":3281:3300   */\n      mstore\n        /* \"#utility.yul\":3333:3337   */\n      0x20\n        /* \"#utility.yul\":3328:3331   */\n      dup3\n        /* \"#utility.yul\":3324:3338   */\n      add\n        /* \"#utility.yul\":3309:3338   */\n      swap1\n      pop\n        /* \"#utility.yul\":3175:3344   */\n      swap3\n      swap2\n      pop\n      pop\n      jump\t// out\n        /* \"#utility.yul\":3350:3489   */\n    tag_87:\n        /* \"#utility.yul\":3439:3445   */\n      dup3\n        /* \"#utility.yul\":3434:3437   */\n      dup2\n        /* \"#utility.yul\":3429:3432   */\n      dup4\n        /* \"#utility.yul\":3423:3446   */\n      mcopy\n        /* \"#utility.yul\":3480:3481   */\n      0x00\n        /* \"#utility.yul\":3471:3477   */\n      dup4\n        /* \"#utility.yul\":3466:3469   */\n      dup4\n        /* \"#utility.yul\":3462:3478   */\n      add\n        /* \"#utility.yul\":3455:3482   */\n      mstore\n        /* \"#utility.yul\":3350:3489   */\n      pop\n      pop\n      pop\n      jump\t// out\n        /* \"#utility.yul\":3495:3872   */\n    tag_88:\n        /* \"#utility.yul\":3583:3586   */\n      0x00\n        /* \"#utility.yul\":3611:3650   */\n      tag_151\n        /* \"#utility.yul\":3644:3649   */\n      dup3\n        /* \"#utility.yul\":3611:3650   */\n      tag_85\n      jump\t// in\n    tag_151:\n        /* \"#utility.yul\":3666:3737   */\n      tag_152\n        /* \"#utility.yul\":3730:3736   */\n      dup2\n        /* \"#utility.yul\":3725:3728   */\n      dup6\n        /* \"#utility.yul\":3666:3737   */\n      tag_86\n      jump\t// in\n    tag_152:\n        /* \"#utility.yul\":3659:3737   */\n      swap4\n      pop\n        /* \"#utility.yul\":3746:3811   */\n      tag_153\n        /* \"#utility.yul\":3804:3810   */\n      dup2\n        /* \"#utility.yul\":3799:3802   */\n      dup6\n        /* \"#utility.yul\":3792:3796   */\n      0x20\n        /* \"#utility.yul\":3785:3790   */\n      dup7\n        /* \"#utility.yul\":3781:3797   */\n      add\n        /* \"#utility.yul\":3746:3811   */\n      tag_87\n      jump\t// in\n    tag_153:\n        /* \"#utility.yul\":3836:3865   */\n      tag_154\n        /* \"#utility.yul\":3858:3864   */\n      dup2\n        /* \"#utility.yul\":3836:3865   */\n      tag_77\n      jump\t// in\n    tag_154:\n        /* \"#utility.yul\":3831:3834   */\n      dup5\n        /* \"#utility.yul\":3827:3866   */\n      add\n        /* \"#utility.yul\":3820:3866   */\n      swap2\n      pop\n        /* \"#utility.yul\":3587:3872   */\n      pop\n        /* \"#utility.yul\":3495:3872   */\n      swap3\n      swap2\n      pop\n      pop\n      jump\t// out\n        /* \"#utility.yul\":3878:3955   */\n    tag_89:\n        /* \"#utility.yul\":3915:3922   */\n      0x00\n        /* \"#utility.yul\":3944:3949   */\n      dup2\n        /* \"#utility.yul\":3933:3949   */\n      swap1\n      pop\n        /* \"#utility.yul\":3878:3955   */\n      swap2\n      swap1\n      pop\n      jump\t// out\n        /* \"#utility.yul\":3961:4079   */\n    tag_90:\n        /* \"#utility.yul\":4048:4072   */\n      tag_157\n        /* \"#utility.yul\":4066:4071   */\n      dup2\n        /* \"#utility.yul\":4048:4072   */\n      tag_89\n      jump\t// in\n    tag_157:\n        /* \"#utility.yul\":4043:4046   */\n      dup3\n        /* \"#utility.yul\":4036:4073   */\n      mstore\n        /* \"#utility.yul\":3961:4079   */\n      pop\n      pop\n      jump\t// out\n        /* \"#utility.yul\":4085:4911   */\n    tag_11:\n        /* \"#utility.yul\":4322:4326   */\n      0x00\n        /* \"#utility.yul\":4360:4363   */\n      0x80\n        /* \"#utility.yul\":4349:4358   */\n      dup3\n        /* \"#utility.yul\":4345:4364   */\n      add\n        /* \"#utility.yul\":4337:4364   */\n      swap1\n      pop\n        /* \"#utility.yul\":4410:4419   */\n      dup2\n        /* \"#utility.yul\":4404:4408   */\n      dup2\n        /* \"#utility.yul\":4400:4420   */\n      sub\n        /* \"#utility.yul\":4396:4397   */\n      0x00\n        /* \"#utility.yul\":4385:4394   */\n      dup4\n        /* \"#utility.yul\":4381:4398   */\n      add\n        /* \"#utility.yul\":4374:4421   */\n      mstore\n        /* \"#utility.yul\":4438:4516   */\n      tag_159\n        /* \"#utility.yul\":4511:4515   */\n      dup2\n        /* \"#utility.yul\":4502:4508   */\n      dup8\n        /* \"#utility.yul\":4438:4516   */\n      tag_88\n      jump\t// in\n    tag_159:\n        /* \"#utility.yul\":4430:4516   */\n      swap1\n      pop\n        /* \"#utility.yul\":4563:4572   */\n      dup2\n        /* \"#utility.yul\":4557:4561   */\n      dup2\n        /* \"#utility.yul\":4553:4573   */\n      sub\n        /* \"#utility.yul\":4548:4550   */\n      0x20\n        /* \"#utility.yul\":4537:4546   */\n      dup4\n        /* \"#utility.yul\":4533:4551   */\n      add\n        /* \"#utility.yul\":4526:4574   */\n      mstore\n        /* \"#utility.yul\":4591:4669   */\n      tag_160\n        /* \"#utility.yul\":4664:4668   */\n      dup2\n        /* \"#utility.yul\":4655:4661   */\n      dup7\n        /* \"#utility.yul\":4591:4669   */\n      tag_88\n      jump\t// in\n    tag_160:\n        /* \"#utility.yul\":4583:4669   */\n      swap1\n      pop\n        /* \"#utility.yul\":4716:4725   */\n      dup2\n        /* \"#utility.yul\":4710:4714   */\n      dup2\n        /* \"#utility.yul\":4706:4726   */\n      sub\n        /* \"#utility.yul\":4701:4703   */\n      0x40\n        /* \"#utility.yul\":4690:4699   */\n      dup4\n        /* \"#utility.yul\":4686:4704   */\n      add\n        /* \"#utility.yul\":4679:4727   */\n      mstore\n        /* \"#utility.yul\":4744:4822   */\n      tag_161\n        /* \"#utility.yul\":4817:4821   */\n      dup2\n        /* \"#utility.yul\":4808:4814   */\n      dup6\n        /* \"#utility.yul\":4744:4822   */\n      tag_88\n      jump\t// in\n    tag_161:\n        /* \"#utility.yul\":4736:4822   */\n      swap1\n      pop\n        /* \"#utility.yul\":4832:4904   */\n      tag_162\n        /* \"#utility.yul\":4900:4902   */\n      0x60\n        /* \"#utility.yul\":4889:4898   */\n      dup4\n        /* \"#utility.yul\":4885:4903   */\n      add\n        /* \"#utility.yul\":4876:4882   */\n      dup5\n        /* \"#utility.yul\":4832:4904   */\n      tag_90\n      jump\t// in\n    tag_162:\n        /* \"#utility.yul\":4085:4911   */\n      swap6\n      swap5\n      pop\n      pop\n      pop\n      pop\n      pop\n      jump\t// out\n        /* \"#utility.yul\":4917:5039   */\n    tag_91:\n        /* \"#utility.yul\":4990:5014   */\n      tag_164\n        /* \"#utility.yul\":5008:5013   */\n      dup2\n        /* \"#utility.yul\":4990:5014   */\n      tag_89\n      jump\t// in\n    tag_164:\n        /* \"#utility.yul\":4983:4988   */\n      dup2\n        /* \"#utility.yul\":4980:5015   */\n      eq\n        /* \"#utility.yul\":4970:5033   */\n      tag_165\n      jumpi\n        /* \"#utility.yul\":5029:5030   */\n      0x00\n        /* \"#utility.yul\":5026:5027   */\n      dup1\n        /* \"#utility.yul\":5019:5031   */\n      revert\n        /* \"#utility.yul\":4970:5033   */\n    tag_165:\n        /* \"#utility.yul\":4917:5039   */\n      pop\n      jump\t// out\n        /* \"#utility.yul\":5045:5184   */\n    tag_92:\n        /* \"#utility.yul\":5091:5096   */\n      0x00\n        /* \"#utility.yul\":5129:5135   */\n      dup2\n        /* \"#utility.yul\":5116:5136   */\n      calldataload\n        /* \"#utility.yul\":5107:5136   */\n      swap1\n      pop\n        /* \"#utility.yul\":5145:5178   */\n      tag_167\n        /* \"#utility.yul\":5172:5177   */\n      dup2\n        /* \"#utility.yul\":5145:5178   */\n      tag_91\n      jump\t// in\n    tag_167:\n        /* \"#utility.yul\":5045:5184   */\n      swap3\n      swap2\n      pop\n      pop\n      jump\t// out\n        /* \"#utility.yul\":5190:6821   */\n    tag_14:\n        /* \"#utility.yul\":5325:5331   */\n      0x00\n        /* \"#utility.yul\":5333:5339   */\n      dup1\n        /* \"#utility.yul\":5341:5347   */\n      0x00\n        /* \"#utility.yul\":5349:5355   */\n      dup1\n        /* \"#utility.yul\":5357:5363   */\n      0x00\n        /* \"#utility.yul\":5406:5409   */\n      0xa0\n        /* \"#utility.yul\":5394:5403   */\n      dup7\n        /* \"#utility.yul\":5385:5392   */\n      dup9\n        /* \"#utility.yul\":5381:5404   */\n      sub\n        /* \"#utility.yul\":5377:5410   */\n      slt\n        /* \"#utility.yul\":5374:5494   */\n      iszero\n      tag_169\n      jumpi\n        /* \"#utility.yul\":5413:5492   */\n      tag_170\n      tag_73\n      jump\t// in\n    tag_170:\n        /* \"#utility.yul\":5374:5494   */\n    tag_169:\n        /* \"#utility.yul\":5561:5562   */\n      0x00\n        /* \"#utility.yul\":5550:5559   */\n      dup7\n        /* \"#utility.yul\":5546:5563   */\n      add\n        /* \"#utility.yul\":5533:5564   */\n      calldataload\n        /* \"#utility.yul\":5591:5609   */\n      0xffffffffffffffff\n        /* \"#utility.yul\":5583:5589   */\n      dup2\n        /* \"#utility.yul\":5580:5610   */\n      gt\n        /* \"#utility.yul\":5577:5694   */\n      iszero\n      tag_171\n      jumpi\n        /* \"#utility.yul\":5613:5692   */\n      tag_172\n      tag_74\n      jump\t// in\n    tag_172:\n        /* \"#utility.yul\":5577:5694   */\n    tag_171:\n        /* \"#utility.yul\":5718:5781   */\n      tag_173\n        /* \"#utility.yul\":5773:5780   */\n      dup9\n        /* \"#utility.yul\":5764:5770   */\n      dup3\n        /* \"#utility.yul\":5753:5762   */\n      dup10\n        /* \"#utility.yul\":5749:5771   */\n      add\n        /* \"#utility.yul\":5718:5781   */\n      tag_84\n      jump\t// in\n    tag_173:\n        /* \"#utility.yul\":5708:5781   */\n      swap6\n      pop\n        /* \"#utility.yul\":5504:5791   */\n      pop\n        /* \"#utility.yul\":5858:5860   */\n      0x20\n        /* \"#utility.yul\":5847:5856   */\n      dup7\n        /* \"#utility.yul\":5843:5861   */\n      add\n        /* \"#utility.yul\":5830:5862   */\n      calldataload\n        /* \"#utility.yul\":5889:5907   */\n      0xffffffffffffffff\n        /* \"#utility.yul\":5881:5887   */\n      dup2\n        /* \"#utility.yul\":5878:5908   */\n      gt\n        /* \"#utility.yul\":5875:5992   */\n      iszero\n      tag_174\n      jumpi\n        /* \"#utility.yul\":5911:5990   */\n      tag_175\n      tag_74\n      jump\t// in\n    tag_175:\n        /* \"#utility.yul\":5875:5992   */\n    tag_174:\n        /* \"#utility.yul\":6016:6079   */\n      tag_176\n        /* \"#utility.yul\":6071:6078   */\n      dup9\n        /* \"#utility.yul\":6062:6068   */\n      dup3\n        /* \"#utility.yul\":6051:6060   */\n      dup10\n        /* \"#utility.yul\":6047:6069   */\n      add\n        /* \"#utility.yul\":6016:6079   */\n      tag_84\n      jump\t// in\n    tag_176:\n        /* \"#utility.yul\":6006:6079   */\n      swap5\n      pop\n        /* \"#utility.yul\":5801:6089   */\n      pop\n        /* \"#utility.yul\":6156:6158   */\n      0x40\n        /* \"#utility.yul\":6145:6154   */\n      dup7\n        /* \"#utility.yul\":6141:6159   */\n      add\n        /* \"#utility.yul\":6128:6160   */\n      calldataload\n        /* \"#utility.yul\":6187:6205   */\n      0xffffffffffffffff\n        /* \"#utility.yul\":6179:6185   */\n      dup2\n        /* \"#utility.yul\":6176:6206   */\n      gt\n        /* \"#utility.yul\":6173:6290   */\n      iszero\n      tag_177\n      jumpi\n        /* \"#utility.yul\":6209:6288   */\n      tag_178\n      tag_74\n      jump\t// in\n    tag_178:\n        /* \"#utility.yul\":6173:6290   */\n    tag_177:\n        /* \"#utility.yul\":6314:6377   */\n      tag_179\n        /* \"#utility.yul\":6369:6376   */\n      dup9\n        /* \"#utility.yul\":6360:6366   */\n      dup3\n        /* \"#utility.yul\":6349:6358   */\n      dup10\n        /* \"#utility.yul\":6345:6367   */\n      add\n        /* \"#utility.yul\":6314:6377   */\n      tag_84\n      jump\t// in\n    tag_179:\n        /* \"#utility.yul\":6304:6377   */\n      swap4\n      pop\n        /* \"#utility.yul\":6099:6387   */\n      pop\n        /* \"#utility.yul\":6454:6456   */\n      0x60\n        /* \"#utility.yul\":6443:6452   */\n      dup7\n        /* \"#utility.yul\":6439:6457   */\n      add\n        /* \"#utility.yul\":6426:6458   */\n      calldataload\n        /* \"#utility.yul\":6485:6503   */\n      0xffffffffffffffff\n        /* \"#utility.yul\":6477:6483   */\n      dup2\n        /* \"#utility.yul\":6474:6504   */\n      gt\n        /* \"#utility.yul\":6471:6588   */\n      iszero\n      tag_180\n      jumpi\n        /* \"#utility.yul\":6507:6586   */\n      tag_181\n      tag_74\n      jump\t// in\n    tag_181:\n        /* \"#utility.yul\":6471:6588   */\n    tag_180:\n        /* \"#utility.yul\":6612:6675   */\n      tag_182\n        /* \"#utility.yul\":6667:6674   */\n      dup9\n        /* \"#utility.yul\":6658:6664   */\n      dup3\n        /* \"#utility.yul\":6647:6656   */\n      dup10\n        /* \"#utility.yul\":6643:6665   */\n      add\n        /* \"#utility.yul\":6612:6675   */\n      tag_84\n      jump\t// in\n    tag_182:\n        /* \"#utility.yul\":6602:6675   */\n      swap3\n      pop\n        /* \"#utility.yul\":6397:6685   */\n      pop\n        /* \"#utility.yul\":6724:6727   */\n      0x80\n        /* \"#utility.yul\":6751:6804   */\n      tag_183\n        /* \"#utility.yul\":6796:6803   */\n      dup9\n        /* \"#utility.yul\":6787:6793   */\n      dup3\n        /* \"#utility.yul\":6776:6785   */\n      dup10\n        /* \"#utility.yul\":6772:6794   */\n      add\n        /* \"#utility.yul\":6751:6804   */\n      tag_92\n      jump\t// in\n    tag_183:\n        /* \"#utility.yul\":6741:6804   */\n      swap2\n      pop\n        /* \"#utility.yul\":6695:6814   */\n      pop\n        /* \"#utility.yul\":5190:6821   */\n      swap3\n      swap6\n      pop\n      swap3\n      swap6\n      swap1\n      swap4\n      pop\n      jump\t// out\n        /* \"#utility.yul\":6827:7855   */\n    tag_20:\n        /* \"#utility.yul\":7112:7116   */\n      0x00\n        /* \"#utility.yul\":7150:7153   */\n      0xa0\n        /* \"#utility.yul\":7139:7148   */\n      dup3\n        /* \"#utility.yul\":7135:7154   */\n      add\n        /* \"#utility.yul\":7127:7154   */\n      swap1\n      pop\n        /* \"#utility.yul\":7200:7209   */\n      dup2\n        /* \"#utility.yul\":7194:7198   */\n      dup2\n        /* \"#utility.yul\":7190:7210   */\n      sub\n        /* \"#utility.yul\":7186:7187   */\n      0x00\n        /* \"#utility.yul\":7175:7184   */\n      dup4\n        /* \"#utility.yul\":7171:7188   */\n      add\n        /* \"#utility.yul\":7164:7211   */\n      mstore\n        /* \"#utility.yul\":7228:7306   */\n      tag_185\n        /* \"#utility.yul\":7301:7305   */\n      dup2\n        /* \"#utility.yul\":7292:7298   */\n      dup9\n        /* \"#utility.yul\":7228:7306   */\n      tag_88\n      jump\t// in\n    tag_185:\n        /* \"#utility.yul\":7220:7306   */\n      swap1\n      pop\n        /* \"#utility.yul\":7353:7362   */\n      dup2\n        /* \"#utility.yul\":7347:7351   */\n      dup2\n        /* \"#utility.yul\":7343:7363   */\n      sub\n        /* \"#utility.yul\":7338:7340   */\n      0x20\n        /* \"#utility.yul\":7327:7336   */\n      dup4\n        /* \"#utility.yul\":7323:7341   */\n      add\n        /* \"#utility.yul\":7316:7364   */\n      mstore\n        /* \"#utility.yul\":7381:7459   */\n      tag_186\n        /* \"#utility.yul\":7454:7458   */\n      dup2\n        /* \"#utility.yul\":7445:7451   */\n      dup8\n        /* \"#utility.yul\":7381:7459   */\n      tag_88\n      jump\t// in\n    tag_186:\n        /* \"#utility.yul\":7373:7459   */\n      swap1\n      pop\n        /* \"#utility.yul\":7506:7515   */\n      dup2\n        /* \"#utility.yul\":7500:7504   */\n      dup2\n        /* \"#utility.yul\":7496:7516   */\n      sub\n        /* \"#utility.yul\":7491:7493   */\n      0x40\n        /* \"#utility.yul\":7480:7489   */\n      dup4\n        /* \"#utility.yul\":7476:7494   */\n      add\n        /* \"#utility.yul\":7469:7517   */\n      mstore\n        /* \"#utility.yul\":7534:7612   */\n      tag_187\n        /* \"#utility.yul\":7607:7611   */\n      dup2\n        /* \"#utility.yul\":7598:7604   */\n      dup7\n        /* \"#utility.yul\":7534:7612   */\n      tag_88\n      jump\t// in\n    tag_187:\n        /* \"#utility.yul\":7526:7612   */\n      swap1\n      pop\n        /* \"#utility.yul\":7659:7668   */\n      dup2\n        /* \"#utility.yul\":7653:7657   */\n      dup2\n        /* \"#utility.yul\":7649:7669   */\n      sub\n        /* \"#utility.yul\":7644:7646   */\n      0x60\n        /* \"#utility.yul\":7633:7642   */\n      dup4\n        /* \"#utility.yul\":7629:7647   */\n      add\n        /* \"#utility.yul\":7622:7670   */\n      mstore\n        /* \"#utility.yul\":7687:7765   */\n      tag_188\n        /* \"#utility.yul\":7760:7764   */\n      dup2\n        /* \"#utility.yul\":7751:7757   */\n      dup6\n        /* \"#utility.yul\":7687:7765   */\n      tag_88\n      jump\t// in\n    tag_188:\n        /* \"#utility.yul\":7679:7765   */\n      swap1\n      pop\n        /* \"#utility.yul\":7775:7848   */\n      tag_189\n        /* \"#utility.yul\":7843:7846   */\n      0x80\n        /* \"#utility.yul\":7832:7841   */\n      dup4\n        /* \"#utility.yul\":7828:7847   */\n      add\n        /* \"#utility.yul\":7819:7825   */\n      dup5\n        /* \"#utility.yul\":7775:7848   */\n      tag_90\n      jump\t// in\n    tag_189:\n        /* \"#utility.yul\":6827:7855   */\n      swap7\n      swap6\n      pop\n      pop\n      pop\n      pop\n      pop\n      pop\n      jump\t// out\n        /* \"#utility.yul\":7861:8009   */\n    tag_93:\n        /* \"#utility.yul\":7963:7974   */\n      0x00\n        /* \"#utility.yul\":8000:8003   */\n      dup2\n        /* \"#utility.yul\":7985:8003   */\n      swap1\n      pop\n        /* \"#utility.yul\":7861:8009   */\n      swap3\n      swap2\n      pop\n      pop\n      jump\t// out\n        /* \"#utility.yul\":8015:8405   */\n    tag_94:\n        /* \"#utility.yul\":8121:8124   */\n      0x00\n        /* \"#utility.yul\":8149:8188   */\n      tag_192\n        /* \"#utility.yul\":8182:8187   */\n      dup3\n        /* \"#utility.yul\":8149:8188   */\n      tag_85\n      jump\t// in\n    tag_192:\n        /* \"#utility.yul\":8204:8293   */\n      tag_193\n        /* \"#utility.yul\":8286:8292   */\n      dup2\n        /* \"#utility.yul\":8281:8284   */\n      dup6\n        /* \"#utility.yul\":8204:8293   */\n      tag_93\n      jump\t// in\n    tag_193:\n        /* \"#utility.yul\":8197:8293   */\n      swap4\n      pop\n        /* \"#utility.yul\":8302:8367   */\n      tag_194\n        /* \"#utility.yul\":8360:8366   */\n      dup2\n        /* \"#utility.yul\":8355:8358   */\n      dup6\n        /* \"#utility.yul\":8348:8352   */\n      0x20\n        /* \"#utility.yul\":8341:8346   */\n      dup7\n        /* \"#utility.yul\":8337:8353   */\n      add\n        /* \"#utility.yul\":8302:8367   */\n      tag_87\n      jump\t// in\n    tag_194:\n        /* \"#utility.yul\":8392:8398   */\n      dup1\n        /* \"#utility.yul\":8387:8390   */\n      dup5\n        /* \"#utility.yul\":8383:8399   */\n      add\n        /* \"#utility.yul\":8376:8399   */\n      swap2\n      pop\n        /* \"#utility.yul\":8125:8405   */\n      pop\n        /* \"#utility.yul\":8015:8405   */\n      swap3\n      swap2\n      pop\n      pop\n      jump\t// out\n        /* \"#utility.yul\":8411:8686   */\n    tag_23:\n        /* \"#utility.yul\":8543:8546   */\n      0x00\n        /* \"#utility.yul\":8565:8660   */\n      tag_196\n        /* \"#utility.yul\":8656:8659   */\n      dup3\n        /* \"#utility.yul\":8647:8653   */\n      dup5\n        /* \"#utility.yul\":8565:8660   */\n      tag_94\n      jump\t// in\n    tag_196:\n        /* \"#utility.yul\":8558:8660   */\n      swap2\n      pop\n        /* \"#utility.yul\":8677:8680   */\n      dup2\n        /* \"#utility.yul\":8670:8680   */\n      swap1\n      pop\n        /* \"#utility.yul\":8411:8686   */\n      swap3\n      swap2\n      pop\n      pop\n      jump\t// out\n        /* \"#utility.yul\":8692:8872   */\n    tag_95:\n        /* \"#utility.yul\":8740:8817   */\n      0x4e487b7100000000000000000000000000000000000000000000000000000000\n        /* \"#utility.yul\":8737:8738   */\n      0x00\n        /* \"#utility.yul\":8730:8818   */\n      mstore\n        /* \"#utility.yul\":8837:8841   */\n      0x22\n        /* \"#utility.yul\":8834:8835   */\n      0x04\n        /* \"#utility.yul\":8827:8842   */\n      mstore\n        /* \"#utility.yul\":8861:8865   */\n      0x24\n        /* \"#utility.yul\":8858:8859   */\n      0x00\n        /* \"#utility.yul\":8851:8866   */\n      revert\n        /* \"#utility.yul\":8878:9198   */\n    tag_25:\n        /* \"#utility.yul\":8922:8928   */\n      0x00\n        /* \"#utility.yul\":8959:8960   */\n      0x02\n        /* \"#utility.yul\":8953:8957   */\n      dup3\n        /* \"#utility.yul\":8949:8961   */\n      div\n        /* \"#utility.yul\":8939:8961   */\n      swap1\n      pop\n        /* \"#utility.yul\":9006:9007   */\n      0x01\n        /* \"#utility.yul\":9000:9004   */\n      dup3\n        /* \"#utility.yul\":8996:9008   */\n      and\n        /* \"#utility.yul\":9027:9045   */\n      dup1\n        /* \"#utility.yul\":9017:9098   */\n      tag_199\n      jumpi\n        /* \"#utility.yul\":9083:9087   */\n      0x7f\n        /* \"#utility.yul\":9075:9081   */\n      dup3\n        /* \"#utility.yul\":9071:9088   */\n      and\n        /* \"#utility.yul\":9061:9088   */\n      swap2\n      pop\n        /* \"#utility.yul\":9017:9098   */\n    tag_199:\n        /* \"#utility.yul\":9145:9147   */\n      0x20\n        /* \"#utility.yul\":9137:9143   */\n      dup3\n        /* \"#utility.yul\":9134:9148   */\n      lt\n        /* \"#utility.yul\":9114:9132   */\n      dup2\n        /* \"#utility.yul\":9111:9149   */\n      sub\n        /* \"#utility.yul\":9108:9192   */\n      tag_200\n      jumpi\n        /* \"#utility.yul\":9164:9182   */\n      tag_201\n      tag_95\n      jump\t// in\n    tag_201:\n        /* \"#utility.yul\":9108:9192   */\n    tag_200:\n        /* \"#utility.yul\":8929:9198   */\n      pop\n        /* \"#utility.yul\":8878:9198   */\n      swap2\n      swap1\n      pop\n      jump\t// out\n        /* \"#utility.yul\":9204:9345   */\n    tag_96:\n        /* \"#utility.yul\":9253:9257   */\n      0x00\n        /* \"#utility.yul\":9276:9279   */\n      dup2\n        /* \"#utility.yul\":9268:9279   */\n      swap1\n      pop\n        /* \"#utility.yul\":9299:9302   */\n      dup2\n        /* \"#utility.yul\":9296:9297   */\n      0x00\n        /* \"#utility.yul\":9289:9303   */\n      mstore\n        /* \"#utility.yul\":9333:9337   */\n      0x20\n        /* \"#utility.yul\":9330:9331   */\n      0x00\n        /* \"#utility.yul\":9320:9338   */\n      keccak256\n        /* \"#utility.yul\":9312:9338   */\n      swap1\n      pop\n        /* \"#utility.yul\":9204:9345   */\n      swap2\n      swap1\n      pop\n      jump\t// out\n        /* \"#utility.yul\":9351:9444   */\n    tag_97:\n        /* \"#utility.yul\":9388:9394   */\n      0x00\n        /* \"#utility.yul\":9435:9437   */\n      0x20\n        /* \"#utility.yul\":9430:9432   */\n      0x1f\n        /* \"#utility.yul\":9423:9428   */\n      dup4\n        /* \"#utility.yul\":9419:9433   */\n      add\n        /* \"#utility.yul\":9415:9438   */\n      div\n        /* \"#utility.yul\":9405:9438   */\n      swap1\n      pop\n        /* \"#utility.yul\":9351:9444   */\n      swap2\n      swap1\n      pop\n      jump\t// out\n        /* \"#utility.yul\":9450:9557   */\n    tag_98:\n        /* \"#utility.yul\":9494:9502   */\n      0x00\n        /* \"#utility.yul\":9544:9549   */\n      dup3\n        /* \"#utility.yul\":9538:9542   */\n      dup3\n        /* \"#utility.yul\":9534:9550   */\n      shl\n        /* \"#utility.yul\":9513:9550   */\n      swap1\n      pop\n        /* \"#utility.yul\":9450:9557   */\n      swap3\n      swap2\n      pop\n      pop\n      jump\t// out\n        /* \"#utility.yul\":9563:9956   */\n    tag_99:\n        /* \"#utility.yul\":9632:9638   */\n      0x00\n        /* \"#utility.yul\":9682:9683   */\n      0x08\n        /* \"#utility.yul\":9670:9680   */\n      dup4\n        /* \"#utility.yul\":9666:9684   */\n      mul\n        /* \"#utility.yul\":9705:9802   */\n      tag_206\n        /* \"#utility.yul\":9735:9801   */\n      0xffffffffffffffffffffffffffffffffffffffffffffffffffffffffffffffff\n        /* \"#utility.yul\":9724:9733   */\n      dup3\n        /* \"#utility.yul\":9705:9802   */\n      tag_98\n      jump\t// in\n    tag_206:\n        /* \"#utility.yul\":9823:9862   */\n      tag_207\n        /* \"#utility.yul\":9853:9861   */\n      dup7\n        /* \"#utility.yul\":9842:9851   */\n      dup4\n        /* \"#utility.yul\":9823:9862   */\n      tag_98\n      jump\t// in\n    tag_207:\n        /* \"#utility.yul\":9811:9862   */\n      swap6\n      pop\n        /* \"#utility.yul\":9895:9899   */\n      dup1\n        /* \"#utility.yul\":9891:9900   */\n      not\n        /* \"#utility.yul\":9884:9889   */\n      dup5\n        /* \"#utility.yul\":9880:9901   */\n      and\n        /* \"#utility.yul\":9871:9901   */\n      swap4\n      pop\n        /* \"#utility.yul\":9944:9948   */\n      dup1\n        /* \"#utility.yul\":9934:9942   */\n      dup7\n        /* \"#utility.yul\":9930:9949   */\n      and\n        /* \"#utility.yul\":9923:9928   */\n      dup5\n        /* \"#utility.yul\":9920:9950   */\n      or\n        /* \"#utility.yul\":9910:9950   */\n      swap3\n      pop\n        /* \"#utility.yul\":9639:9956   */\n      pop\n      pop\n        /* \"#utility.yul\":9563:9956   */\n      swap4\n      swap3\n      pop\n      pop\n      pop\n      jump\t// out\n        /* \"#utility.yul\":9962:10022   */\n    tag_100:\n        /* \"#utility.yul\":9990:9993   */\n      0x00\n        /* \"#utility.yul\":10011:10016   */\n      dup2\n        /* \"#utility.yul\":10004:10016   */\n      swap1\n      pop\n        /* \"#utility.yul\":9962:10022   */\n      swap2\n      swap1\n      pop\n      jump\t// out\n        /* \"#utility.yul\":10028:10170   */\n    tag_101:\n        /* \"#utility.yul\":10078:10087   */\n      0x00\n        /* \"#utility.yul\":10111:10164   */\n      tag_210\n        /* \"#utility.yul\":10129:10163   */\n      tag_211\n        /* \"#utility.yul\":10138:10162   */\n      tag_212\n        /* \"#utility.yul\":10156:10161   */\n      dup5\n        /* \"#utility.yul\":10138:10162   */\n      tag_89\n      jump\t// in\n    tag_212:\n        /* \"#utility.yul\":10129:10163   */\n      tag_100\n      jump\t// in\n    tag_211:\n        /* \"#utility.yul\":10111:10164   */\n      tag_89\n      jump\t// in\n    tag_210:\n        /* \"#utility.yul\":10098:10164   */\n      swap1\n      pop\n        /* \"#utility.yul\":10028:10170   */\n      swap2\n      swap1\n      pop\n      jump\t// out\n        /* \"#utility.yul\":10176:10251   */\n    tag_102:\n        /* \"#utility.yul\":10219:10222   */\n      0x00\n        /* \"#utility.yul\":10240:10245   */\n      dup2\n        /* \"#utility.yul\":10233:10245   */\n      swap1\n      pop\n        /* \"#utility.yul\":10176:10251   */\n      swap2\n      swap1\n      pop\n      jump\t// out\n        /* \"#utility.yul\":10257:10526   */\n    tag_103:\n        /* \"#utility.yul\":10367:10406   */\n      tag_215\n        /* \"#utility.yul\":10398:10405   */\n      dup4\n        /* \"#utility.yul\":10367:10406   */\n      tag_101\n      jump\t// in\n    tag_215:\n        /* \"#utility.yul\":10428:10519   */\n      tag_216\n        /* \"#utility.yul\":10477:10518   */\n      tag_217\n        /* \"#utility.yul\":10501:10517   */\n      dup3\n        /* \"#utility.yul\":10477:10518   */\n      tag_102\n      jump\t// in\n    tag_217:\n        /* \"#utility.yul\":10469:10475   */\n      dup5\n        /* \"#utility.yul\":10462:10466   */\n      dup5\n        /* \"#utility.yul\":10456:10467   */\n      sload\n        /* \"#utility.yul\":10428:10519   */\n      tag_99\n      jump\t// in\n    tag_216:\n        /* \"#utility.yul\":10422:10426   */\n      dup3\n        /* \"#utility.yul\":10415:10520   */\n      sstore\n        /* \"#utility.yul\":10333:10526   */\n      pop\n        /* \"#utility.yul\":10257:10526   */\n      pop\n      pop\n      pop\n      jump\t// out\n        /* \"#utility.yul\":10532:10605   */\n    tag_104:\n        /* \"#utility.yul\":10577:10580   */\n      0x00\n        /* \"#utility.yul\":10532:10605   */\n      swap1\n      jump\t// out\n        /* \"#utility.yul\":10611:10800   */\n    tag_105:\n        /* \"#utility.yul\":10688:10720   */\n      tag_220\n      tag_104\n      jump\t// in\n    tag_220:\n        /* \"#utility.yul\":10729:10794   */\n      tag_221\n        /* \"#utility.yul\":10787:10793   */\n      dup2\n        /* \"#utility.yul\":10779:10785   */\n      dup5\n        /* \"#utility.yul\":10773:10777   */\n      dup5\n        /* \"#utility.yul\":10729:10794   */\n      tag_103\n      jump\t// in\n    tag_221:\n        /* \"#utility.yul\":10664:10800   */\n      pop\n        /* \"#utility.yul\":10611:10800   */\n      pop\n      pop\n      jump\t// out\n        /* \"#utility.yul\":10806:10992   */\n    tag_106:\n        /* \"#utility.yul\":10866:10986   */\n    tag_223:\n        /* \"#utility.yul\":10883:10886   */\n      dup2\n        /* \"#utility.yul\":10876:10881   */\n      dup2\n        /* \"#utility.yul\":10873:10887   */\n      lt\n        /* \"#utility.yul\":10866:10986   */\n      iszero\n      tag_225\n      jumpi\n        /* \"#utility.yul\":10937:10976   */\n      tag_226\n        /* \"#utility.yul\":10974:10975   */\n      0x00\n        /* \"#utility.yul\":10967:10972   */\n      dup3\n        /* \"#utility.yul\":10937:10976   */\n      tag_105\n      jump\t// in\n    tag_226:\n        /* \"#utility.yul\":10910:10911   */\n      0x01\n        /* \"#utility.yul\":10903:10908   */\n      dup2\n        /* \"#utility.yul\":10899:10912   */\n      add\n        /* \"#utility.yul\":10890:10912   */\n      swap1\n      pop\n        /* \"#utility.yul\":10866:10986   */\n      jump(tag_223)\n    tag_225:\n        /* \"#utility.yul\":10806:10992   */\n      pop\n      pop\n      jump\t// out\n        /* \"#utility.yul\":10998:11541   */\n    tag_107:\n        /* \"#utility.yul\":11099:11101   */\n      0x1f\n        /* \"#utility.yul\":11094:11097   */\n      dup3\n        /* \"#utility.yul\":11091:11102   */\n      gt\n        /* \"#utility.yul\":11088:11534   */\n      iszero\n      tag_228\n      jumpi\n        /* \"#utility.yul\":11133:11171   */\n      tag_229\n        /* \"#utility.yul\":11165:11170   */\n      dup2\n        /* \"#utility.yul\":11133:11171   */\n      tag_96\n      jump\t// in\n    tag_229:\n        /* \"#utility.yul\":11217:11246   */\n      tag_230\n        /* \"#utility.yul\":11235:11245   */\n      dup5\n        /* \"#utility.yul\":11217:11246   */\n      tag_97\n      jump\t// in\n    tag_230:\n        /* \"#utility.yul\":11207:11215   */\n      dup2\n        /* \"#utility.yul\":11203:11247   */\n      add\n        /* \"#utility.yul\":11400:11402   */\n      0x20\n        /* \"#utility.yul\":11388:11398   */\n      dup6\n        /* \"#utility.yul\":11385:11403   */\n      lt\n        /* \"#utility.yul\":11382:11431   */\n      iszero\n      tag_231\n      jumpi\n        /* \"#utility.yul\":11421:11429   */\n      dup2\n        /* \"#utility.yul\":11406:11429   */\n      swap1\n      pop\n        /* \"#utility.yul\":11382:11431   */\n    tag_231:\n        /* \"#utility.yul\":11444:11524   */\n      tag_232\n        /* \"#utility.yul\":11500:11522   */\n      tag_233\n        /* \"#utility.yul\":11518:11521   */\n      dup6\n        /* \"#utility.yul\":11500:11522   */\n      tag_97\n      jump\t// in\n    tag_233:\n        /* \"#utility.yul\":11490:11498   */\n      dup4\n        /* \"#utility.yul\":11486:11523   */\n      add\n        /* \"#utility.yul\":11473:11484   */\n      dup3\n        /* \"#utility.yul\":11444:11524   */\n      tag_106\n      jump\t// in\n    tag_232:\n        /* \"#utility.yul\":11103:11534   */\n      pop\n      pop\n        /* \"#utility.yul\":11088:11534   */\n    tag_228:\n        /* \"#utility.yul\":10998:11541   */\n      pop\n      pop\n      pop\n      jump\t// out\n        /* \"#utility.yul\":11547:11664   */\n    tag_108:\n        /* \"#utility.yul\":11601:11609   */\n      0x00\n        /* \"#utility.yul\":11651:11656   */\n      dup3\n        /* \"#utility.yul\":11645:11649   */\n      dup3\n        /* \"#utility.yul\":11641:11657   */\n      shr\n        /* \"#utility.yul\":11620:11657   */\n      swap1\n      pop\n        /* \"#utility.yul\":11547:11664   */\n      swap3\n      swap2\n      pop\n      pop\n      jump\t// out\n        /* \"#utility.yul\":11670:11839   */\n    tag_109:\n        /* \"#utility.yul\":11714:11720   */\n      0x00\n        /* \"#utility.yul\":11747:11798   */\n      tag_236\n        /* \"#utility.yul\":11795:11796   */\n      0x00\n        /* \"#utility.yul\":11791:11797   */\n      not\n        /* \"#utility.yul\":11783:11788   */\n      dup5\n        /* \"#utility.yul\":11780:11781   */\n      0x08\n        /* \"#utility.yul\":11776:11789   */\n      mul\n        /* \"#utility.yul\":11747:11798   */\n      tag_108\n      jump\t// in\n    tag_236:\n        /* \"#utility.yul\":11743:11799   */\n      not\n        /* \"#utility.yul\":11828:11832   */\n      dup1\n        /* \"#utility.yul\":11822:11826   */\n      dup4\n        /* \"#utility.yul\":11818:11833   */\n      and\n        /* \"#utility.yul\":11808:11833   */\n      swap2\n      pop\n        /* \"#utility.yul\":11721:11839   */\n      pop\n        /* \"#utility.yul\":11670:11839   */\n      swap3\n      swap2\n      pop\n      pop\n      jump\t// out\n        /* \"#utility.yul\":11844:12139   */\n    tag_110:\n        /* \"#utility.yul\":11920:11924   */\n      0x00\n        /* \"#utility.yul\":12066:12095   */\n      tag_238\n        /* \"#utility.yul\":12091:12094   */\n      dup4\n        /* \"#utility.yul\":12085:12089   */\n      dup4\n        /* \"#utility.yul\":12066:12095   */\n      tag_109\n      jump\t// in\n    tag_238:\n        /* \"#utility.yul\":12058:12095   */\n      swap2\n      pop\n        /* \"#utility.yul\":12128:12131   */\n      dup3\n        /* \"#utility.yul\":12125:12126   */\n      0x02\n        /* \"#utility.yul\":12121:12132   */\n      mul\n        /* \"#utility.yul\":12115:12119   */\n      dup3\n        /* \"#utility.yul\":12112:12133   */\n      or\n        /* \"#utility.yul\":12104:12133   */\n      swap1\n      pop\n        /* \"#utility.yul\":11844:12139   */\n      swap3\n      swap2\n      pop\n      pop\n      jump\t// out\n        /* \"#utility.yul\":12144:13539   */\n    tag_48:\n        /* \"#utility.yul\":12261:12298   */\n      tag_240\n        /* \"#utility.yul\":12294:12297   */\n      dup3\n        /* \"#utility.yul\":12261:12298   */\n      tag_85\n      jump\t// in\n    tag_240:\n        /* \"#utility.yul\":12363:12381   */\n      0xffffffffffffffff\n        /* \"#utility.yul\":12355:12361   */\n      dup2\n        /* \"#utility.yul\":12352:12382   */\n      gt\n        /* \"#utility.yul\":12349:12405   */\n      iszero\n      tag_241\n      jumpi\n        /* \"#utility.yul\":12385:12403   */\n      tag_242\n      tag_78\n      jump\t// in\n    tag_242:\n        /* \"#utility.yul\":12349:12405   */\n    tag_241:\n        /* \"#utility.yul\":12429:12467   */\n      tag_243\n        /* \"#utility.yul\":12461:12465   */\n      dup3\n        /* \"#utility.yul\":12455:12466   */\n      sload\n        /* \"#utility.yul\":12429:12467   */\n      tag_25\n      jump\t// in\n    tag_243:\n        /* \"#utility.yul\":12514:12581   */\n      tag_244\n        /* \"#utility.yul\":12574:12580   */\n      dup3\n        /* \"#utility.yul\":12566:12572   */\n      dup3\n        /* \"#utility.yul\":12560:12564   */\n      dup6\n        /* \"#utility.yul\":12514:12581   */\n      tag_107\n      jump\t// in\n    tag_244:\n        /* \"#utility.yul\":12608:12609   */\n      0x00\n        /* \"#utility.yul\":12632:12636   */\n      0x20\n        /* \"#utility.yul\":12619:12636   */\n      swap1\n      pop\n        /* \"#utility.yul\":12664:12666   */\n      0x1f\n        /* \"#utility.yul\":12656:12662   */\n      dup4\n        /* \"#utility.yul\":12653:12667   */\n      gt\n        /* \"#utility.yul\":12681:12682   */\n      0x01\n        /* \"#utility.yul\":12676:13294   */\n      dup2\n      eq\n      tag_246\n      jumpi\n        /* \"#utility.yul\":13338:13339   */\n      0x00\n        /* \"#utility.yul\":13355:13361   */\n      dup5\n        /* \"#utility.yul\":13352:13429   */\n      iszero\n      tag_247\n      jumpi\n        /* \"#utility.yul\":13404:13413   */\n      dup3\n        /* \"#utility.yul\":13399:13402   */\n      dup8\n        /* \"#utility.yul\":13395:13414   */\n      add\n        /* \"#utility.yul\":13389:13415   */\n      mload\n        /* \"#utility.yul\":13380:13415   */\n      swap1\n      pop\n        /* \"#utility.yul\":13352:13429   */\n    tag_247:\n        /* \"#utility.yul\":13455:13522   */\n      tag_248\n        /* \"#utility.yul\":13515:13521   */\n      dup6\n        /* \"#utility.yul\":13508:13513   */\n      dup3\n        /* \"#utility.yul\":13455:13522   */\n      tag_110\n      jump\t// in\n    tag_248:\n        /* \"#utility.yul\":13449:13453   */\n      dup7\n        /* \"#utility.yul\":13442:13523   */\n      sstore\n        /* \"#utility.yul\":13311:13533   */\n      pop\n        /* \"#utility.yul\":12646:13533   */\n      jump(tag_245)\n        /* \"#utility.yul\":12676:13294   */\n    tag_246:\n        /* \"#utility.yul\":12728:12732   */\n      0x1f\n        /* \"#utility.yul\":12724:12733   */\n      not\n        /* \"#utility.yul\":12716:12722   */\n      dup5\n        /* \"#utility.yul\":12712:12734   */\n      and\n        /* \"#utility.yul\":12762:12799   */\n      tag_249\n        /* \"#utility.yul\":12794:12798   */\n      dup7\n        /* \"#utility.yul\":12762:12799   */\n      tag_96\n      jump\t// in\n    tag_249:\n        /* \"#utility.yul\":12821:12822   */\n      0x00\n        /* \"#utility.yul\":12835:13043   */\n    tag_250:\n        /* \"#utility.yul\":12849:12856   */\n      dup3\n        /* \"#utility.yul\":12846:12847   */\n      dup2\n        /* \"#utility.yul\":12843:12857   */\n      lt\n        /* \"#utility.yul\":12835:13043   */\n      iszero\n      tag_252\n      jumpi\n        /* \"#utility.yul\":12928:12937   */\n      dup5\n        /* \"#utility.yul\":12923:12926   */\n      dup10\n        /* \"#utility.yul\":12919:12938   */\n      add\n        /* \"#utility.yul\":12913:12939   */\n      mload\n        /* \"#utility.yul\":12905:12911   */\n      dup3\n        /* \"#utility.yul\":12898:12940   */\n      sstore\n        /* \"#utility.yul\":12979:12980   */\n      0x01\n        /* \"#utility.yul\":12971:12977   */\n      dup3\n        /* \"#utility.yul\":12967:12981   */\n      add\n        /* \"#utility.yul\":12957:12981   */\n      swap2\n      pop\n        /* \"#utility.yul\":13026:13028   */\n      0x20\n        /* \"#utility.yul\":13015:13024   */\n      dup6\n        /* \"#utility.yul\":13011:13029   */\n      add\n        /* \"#utility.yul\":12998:13029   */\n      swap5\n      pop\n        /* \"#utility.yul\":12872:12876   */\n      0x20\n        /* \"#utility.yul\":12869:12870   */\n      dup2\n        /* \"#utility.yul\":12865:12877   */\n      add\n        /* \"#utility.yul\":12860:12877   */\n      swap1\n      pop\n        /* \"#utility.yul\":12835:13043   */\n      jump(tag_250)\n    tag_252:\n        /* \"#utility.yul\":13071:13077   */\n      dup7\n        /* \"#utility.yul\":13062:13069   */\n      dup4\n        /* \"#utility.yul\":13059:13078   */\n      lt\n        /* \"#utility.yul\":13056:13235   */\n      iszero\n      tag_253\n      jumpi\n        /* \"#utility.yul\":13129:13138   */\n      dup5\n        /* \"#utility.yul\":13124:13127   */\n      dup10\n        /* \"#utility.yul\":13120:13139   */\n      add\n        /* \"#utility.yul\":13114:13140   */\n      mload\n        /* \"#utility.yul\":13172:13220   */\n      tag_254\n        /* \"#utility.yul\":13214:13218   */\n      0x1f\n        /* \"#utility.yul\":13206:13212   */\n      dup10\n        /* \"#utility.yul\":13202:13219   */\n      and\n        /* \"#utility.yul\":13191:13200   */\n      dup3\n        /* \"#utility.yul\":13172:13220   */\n      tag_109\n      jump\t// in\n    tag_254:\n        /* \"#utility.yul\":13164:13170   */\n      dup4\n        /* \"#utility.yul\":13157:13221   */\n      sstore\n        /* \"#utility.yul\":13079:13235   */\n      pop\n        /* \"#utility.yul\":13056:13235   */\n    tag_253:\n        /* \"#utility.yul\":13281:13282   */\n      0x01\n        /* \"#utility.yul\":13277:13278   */\n      0x02\n        /* \"#utility.yul\":13269:13275   */\n      dup9\n        /* \"#utility.yul\":13265:13279   */\n      mul\n        /* \"#utility.yul\":13261:13283   */\n      add\n        /* \"#utility.yul\":13255:13259   */\n      dup9\n        /* \"#utility.yul\":13248:13284   */\n      sstore\n        /* \"#utility.yul\":12683:13294   */\n      pop\n      pop\n      pop\n        /* \"#utility.yul\":12646:13533   */\n    tag_245:\n      pop\n        /* \"#utility.yul\":12236:13539   */\n      pop\n      pop\n      pop\n        /* \"#utility.yul\":12144:13539   */\n      pop\n      pop\n      jump\t// out\n\n    auxdata: 0xa264697066735822122011a1fe5932c5af3ac36bbd1908cfc9222d98dbae4645f8e62fe60cd5565b6b0864736f6c634300081a0033\n}\n",
				"bytecode": {
					"linkReferences": {},
					"object": "6080604052348015600e575f80fd5b50610da48061001c5f395ff3fe608060405234801561000f575f80fd5b506004361061003f575f3560e01c806311bd30a1146100435780631b23cc7114610076578063d2303dad14610092575b5f80fd5b61005d600480360381019061005891906107c0565b6100c6565b60405161006d949392919061087f565b60405180910390f35b610090600480360381019061008b9190610901565b610364565b005b6100ac60048036038101906100a791906107c0565b610412565b6040516100bd9594939291906109e8565b60405180910390f35b60608060605f805f866040516100dc9190610a8f565b90815260200160405180910390206040518060a00160405290815f8201805461010490610ad2565b80601f016020809104026020016040519081016040528092919081815260200182805461013090610ad2565b801561017b5780601f106101525761010080835404028352916020019161017b565b820191905f5260205f20905b81548152906001019060200180831161015e57829003601f168201915b5050505050815260200160018201805461019490610ad2565b80601f01602080910402602001604051908101604052809291908181526020018280546101c090610ad2565b801561020b5780601f106101e25761010080835404028352916020019161020b565b820191905f5260205f20905b8154815290600101906020018083116101ee57829003601f168201915b5050505050815260200160028201805461022490610ad2565b80601f016020809104026020016040519081016040528092919081815260200182805461025090610ad2565b801561029b5780601f106102725761010080835404028352916020019161029b565b820191905f5260205f20905b81548152906001019060200180831161027e57829003601f168201915b505050505081526020016003820180546102b490610ad2565b80601f01602080910402602001604051908101604052809291908181526020018280546102e090610ad2565b801561032b5780601f106103025761010080835404028352916020019161032b565b820191905f5260205f20905b81548152906001019060200180831161030e57829003601f168201915b50505050508152602001600482015481525050905080602001518160400151826060015183608001519450945094509450509193509193565b6040518060a00160405280868152602001858152602001848152602001838152602001828152505f8660405161039a9190610a8f565b90815260200160405180910390205f820151815f0190816103bb9190610c9f565b5060208201518160010190816103d19190610c9f565b5060408201518160020190816103e79190610c9f565b5060608201518160030190816103fd9190610c9f565b50608082015181600401559050505050505050565b5f818051602081018201805184825260208301602085012081835280955050505050505f91509050805f01805461044890610ad2565b80601f016020809104026020016040519081016040528092919081815260200182805461047490610ad2565b80156104bf5780601f10610496576101008083540402835291602001916104bf565b820191905f5260205f20905b8154815290600101906020018083116104a257829003601f168201915b5050505050908060010180546104d490610ad2565b80601f016020809104026020016040519081016040528092919081815260200182805461050090610ad2565b801561054b5780601f106105225761010080835404028352916020019161054b565b820191905f5260205f20905b81548152906001019060200180831161052e57829003601f168201915b50505050509080600201805461056090610ad2565b80601f016020809104026020016040519081016040528092919081815260200182805461058c90610ad2565b80156105d75780601f106105ae576101008083540402835291602001916105d7565b820191905f5260205f20905b8154815290600101906020018083116105ba57829003601f168201915b5050505050908060030180546105ec90610ad2565b80601f016020809104026020016040519081016040528092919081815260200182805461061890610ad2565b80156106635780601f1061063a57610100808354040283529160200191610663565b820191905f5260205f20905b81548152906001019060200180831161064657829003601f168201915b5050505050908060040154905085565b5f604051905090565b5f80fd5b5f80fd5b5f80fd5b5f80fd5b5f601f19601f8301169050919050565b7f4e487b71000000000000000000000000000000000000000000000000000000005f52604160045260245ffd5b6106d28261068c565b810181811067ffffffffffffffff821117156106f1576106f061069c565b5b80604052505050565b5f610703610673565b905061070f82826106c9565b919050565b5f67ffffffffffffffff82111561072e5761072d61069c565b5b6107378261068c565b9050602081019050919050565b828183375f83830152505050565b5f61076461075f84610714565b6106fa565b9050828152602081018484840111156107805761077f610688565b5b61078b848285610744565b509392505050565b5f82601f8301126107a7576107a6610684565b5b81356107b7848260208601610752565b91505092915050565b5f602082840312156107d5576107d461067c565b5b5f82013567ffffffffffffffff8111156107f2576107f1610680565b5b6107fe84828501610793565b91505092915050565b5f81519050919050565b5f82825260208201905092915050565b8281835e5f83830152505050565b5f61083982610807565b6108438185610811565b9350610853818560208601610821565b61085c8161068c565b840191505092915050565b5f819050919050565b61087981610867565b82525050565b5f6080820190508181035f830152610897818761082f565b905081810360208301526108ab818661082f565b905081810360408301526108bf818561082f565b90506108ce6060830184610870565b95945050505050565b6108e081610867565b81146108ea575f80fd5b50565b5f813590506108fb816108d7565b92915050565b5f805f805f60a0868803121561091a5761091961067c565b5b5f86013567ffffffffffffffff81111561093757610936610680565b5b61094388828901610793565b955050602086013567ffffffffffffffff81111561096457610963610680565b5b61097088828901610793565b945050604086013567ffffffffffffffff81111561099157610990610680565b5b61099d88828901610793565b935050606086013567ffffffffffffffff8111156109be576109bd610680565b5b6109ca88828901610793565b92505060806109db888289016108ed565b9150509295509295909350565b5f60a0820190508181035f830152610a00818861082f565b90508181036020830152610a14818761082f565b90508181036040830152610a28818661082f565b90508181036060830152610a3c818561082f565b9050610a4b6080830184610870565b9695505050505050565b5f81905092915050565b5f610a6982610807565b610a738185610a55565b9350610a83818560208601610821565b80840191505092915050565b5f610a9a8284610a5f565b915081905092915050565b7f4e487b71000000000000000000000000000000000000000000000000000000005f52602260045260245ffd5b5f6002820490506001821680610ae957607f821691505b602082108103610afc57610afb610aa5565b5b50919050565b5f819050815f5260205f209050919050565b5f6020601f8301049050919050565b5f82821b905092915050565b5f60088302610b5e7fffffffffffffffffffffffffffffffffffffffffffffffffffffffffffffffff82610b23565b610b688683610b23565b95508019841693508086168417925050509392505050565b5f819050919050565b5f610ba3610b9e610b9984610867565b610b80565b610867565b9050919050565b5f819050919050565b610bbc83610b89565b610bd0610bc882610baa565b848454610b2f565b825550505050565b5f90565b610be4610bd8565b610bef818484610bb3565b505050565b5b81811015610c1257610c075f82610bdc565b600181019050610bf5565b5050565b601f821115610c5757610c2881610b02565b610c3184610b14565b81016020851015610c40578190505b610c54610c4c85610b14565b830182610bf4565b50505b505050565b5f82821c905092915050565b5f610c775f1984600802610c5c565b1980831691505092915050565b5f610c8f8383610c68565b9150826002028217905092915050565b610ca882610807565b67ffffffffffffffff811115610cc157610cc061069c565b5b610ccb8254610ad2565b610cd6828285610c16565b5f60209050601f831160018114610d07575f8415610cf5578287015190505b610cff8582610c84565b865550610d66565b601f198416610d1586610b02565b5f5b82811015610d3c57848901518255600182019150602085019450602081019050610d17565b86831015610d595784890151610d55601f891682610c68565b8355505b6001600288020188555050505b50505050505056fea264697066735822122011a1fe5932c5af3ac36bbd1908cfc9222d98dbae4645f8e62fe60cd5565b6b0864736f6c634300081a0033",
					"opcodes": "PUSH1 0x80 PUSH1 0x40 MSTORE CALLVALUE DUP1 ISZERO PUSH1 0xE JUMPI PUSH0 DUP1 REVERT JUMPDEST POP PUSH2 0xDA4 DUP1 PUSH2 0x1C PUSH0 CODECOPY PUSH0 RETURN INVALID PUSH1 0x80 PUSH1 0x40 MSTORE CALLVALUE DUP1 ISZERO PUSH2 0xF JUMPI PUSH0 DUP1 REVERT JUMPDEST POP PUSH1 0x4 CALLDATASIZE LT PUSH2 0x3F JUMPI PUSH0 CALLDATALOAD PUSH1 0xE0 SHR DUP1 PUSH4 0x11BD30A1 EQ PUSH2 0x43 JUMPI DUP1 PUSH4 0x1B23CC71 EQ PUSH2 0x76 JUMPI DUP1 PUSH4 0xD2303DAD EQ PUSH2 0x92 JUMPI JUMPDEST PUSH0 DUP1 REVERT JUMPDEST PUSH2 0x5D PUSH1 0x4 DUP1 CALLDATASIZE SUB DUP2 ADD SWAP1 PUSH2 0x58 SWAP2 SWAP1 PUSH2 0x7C0 JUMP JUMPDEST PUSH2 0xC6 JUMP JUMPDEST PUSH1 0x40 MLOAD PUSH2 0x6D SWAP5 SWAP4 SWAP3 SWAP2 SWAP1 PUSH2 0x87F JUMP JUMPDEST PUSH1 0x40 MLOAD DUP1 SWAP2 SUB SWAP1 RETURN JUMPDEST PUSH2 0x90 PUSH1 0x4 DUP1 CALLDATASIZE SUB DUP2 ADD SWAP1 PUSH2 0x8B SWAP2 SWAP1 PUSH2 0x901 JUMP JUMPDEST PUSH2 0x364 JUMP JUMPDEST STOP JUMPDEST PUSH2 0xAC PUSH1 0x4 DUP1 CALLDATASIZE SUB DUP2 ADD SWAP1 PUSH2 0xA7 SWAP2 SWAP1 PUSH2 0x7C0 JUMP JUMPDEST PUSH2 0x412 JUMP JUMPDEST PUSH1 0x40 MLOAD PUSH2 0xBD SWAP6 SWAP5 SWAP4 SWAP3 SWAP2 SWAP1 PUSH2 0x9E8 JUMP JUMPDEST PUSH1 0x40 MLOAD DUP1 SWAP2 SUB SWAP1 RETURN JUMPDEST PUSH1 0x60 DUP1 PUSH1 0x60 PUSH0 DUP1 PUSH0 DUP7 PUSH1 0x40 MLOAD PUSH2 0xDC SWAP2 SWAP1 PUSH2 0xA8F JUMP JUMPDEST SWAP1 DUP2 MSTORE PUSH1 0x20 ADD PUSH1 0x40 MLOAD DUP1 SWAP2 SUB SWAP1 KECCAK256 PUSH1 0x40 MLOAD DUP1 PUSH1 0xA0 ADD PUSH1 0x40 MSTORE SWAP1 DUP2 PUSH0 DUP3 ADD DUP1 SLOAD PUSH2 0x104 SWAP1 PUSH2 0xAD2 JUMP JUMPDEST DUP1 PUSH1 0x1F ADD PUSH1 0x20 DUP1 SWAP2 DIV MUL PUSH1 0x20 ADD PUSH1 0x40 MLOAD SWAP1 DUP2 ADD PUSH1 0x40 MSTORE DUP1 SWAP3 SWAP2 SWAP1 DUP2 DUP2 MSTORE PUSH1 0x20 ADD DUP3 DUP1 SLOAD PUSH2 0x130 SWAP1 PUSH2 0xAD2 JUMP JUMPDEST DUP1 ISZERO PUSH2 0x17B JUMPI DUP1 PUSH1 0x1F LT PUSH2 0x152 JUMPI PUSH2 0x100 DUP1 DUP4 SLOAD DIV MUL DUP4 MSTORE SWAP2 PUSH1 0x20 ADD SWAP2 PUSH2 0x17B JUMP JUMPDEST DUP3 ADD SWAP2 SWAP1 PUSH0 MSTORE PUSH1 0x20 PUSH0 KECCAK256 SWAP1 JUMPDEST DUP2 SLOAD DUP2 MSTORE SWAP1 PUSH1 0x1 ADD SWAP1 PUSH1 0x20 ADD DUP1 DUP4 GT PUSH2 0x15E JUMPI DUP3 SWAP1 SUB PUSH1 0x1F AND DUP3 ADD SWAP2 JUMPDEST POP POP POP POP POP DUP2 MSTORE PUSH1 0x20 ADD PUSH1 0x1 DUP3 ADD DUP1 SLOAD PUSH2 0x194 SWAP1 PUSH2 0xAD2 JUMP JUMPDEST DUP1 PUSH1 0x1F ADD PUSH1 0x20 DUP1 SWAP2 DIV MUL PUSH1 0x20 ADD PUSH1 0x40 MLOAD SWAP1 DUP2 ADD PUSH1 0x40 MSTORE DUP1 SWAP3 SWAP2 SWAP1 DUP2 DUP2 MSTORE PUSH1 0x20 ADD DUP3 DUP1 SLOAD PUSH2 0x1C0 SWAP1 PUSH2 0xAD2 JUMP JUMPDEST DUP1 ISZERO PUSH2 0x20B JUMPI DUP1 PUSH1 0x1F LT PUSH2 0x1E2 JUMPI PUSH2 0x100 DUP1 DUP4 SLOAD DIV MUL DUP4 MSTORE SWAP2 PUSH1 0x20 ADD SWAP2 PUSH2 0x20B JUMP JUMPDEST DUP3 ADD SWAP2 SWAP1 PUSH0 MSTORE PUSH1 0x20 PUSH0 KECCAK256 SWAP1 JUMPDEST DUP2 SLOAD DUP2 MSTORE SWAP1 PUSH1 0x1 ADD SWAP1 PUSH1 0x20 ADD DUP1 DUP4 GT PUSH2 0x1EE JUMPI DUP3 SWAP1 SUB PUSH1 0x1F AND DUP3 ADD SWAP2 JUMPDEST POP POP POP POP POP DUP2 MSTORE PUSH1 0x20 ADD PUSH1 0x2 DUP3 ADD DUP1 SLOAD PUSH2 0x224 SWAP1 PUSH2 0xAD2 JUMP JUMPDEST DUP1 PUSH1 0x1F ADD PUSH1 0x20 DUP1 SWAP2 DIV MUL PUSH1 0x20 ADD PUSH1 0x40 MLOAD SWAP1 DUP2 ADD PUSH1 0x40 MSTORE DUP1 SWAP3 SWAP2 SWAP1 DUP2 DUP2 MSTORE PUSH1 0x20 ADD DUP3 DUP1 SLOAD PUSH2 0x250 SWAP1 PUSH2 0xAD2 JUMP JUMPDEST DUP1 ISZERO PUSH2 0x29B JUMPI DUP1 PUSH1 0x1F LT PUSH2 0x272 JUMPI PUSH2 0x100 DUP1 DUP4 SLOAD DIV MUL DUP4 MSTORE SWAP2 PUSH1 0x20 ADD SWAP2 PUSH2 0x29B JUMP JUMPDEST DUP3 ADD SWAP2 SWAP1 PUSH0 MSTORE PUSH1 0x20 PUSH0 KECCAK256 SWAP1 JUMPDEST DUP2 SLOAD DUP2 MSTORE SWAP1 PUSH1 0x1 ADD SWAP1 PUSH1 0x20 ADD DUP1 DUP4 GT PUSH2 0x27E JUMPI DUP3 SWAP1 SUB PUSH1 0x1F AND DUP3 ADD SWAP2 JUMPDEST POP POP POP POP POP DUP2 MSTORE PUSH1 0x20 ADD PUSH1 0x3 DUP3 ADD DUP1 SLOAD PUSH2 0x2B4 SWAP1 PUSH2 0xAD2 JUMP JUMPDEST DUP1 PUSH1 0x1F ADD PUSH1 0x20 DUP1 SWAP2 DIV MUL PUSH1 0x20 ADD PUSH1 0x40 MLOAD SWAP1 DUP2 ADD PUSH1 0x40 MSTORE DUP1 SWAP3 SWAP2 SWAP1 DUP2 DUP2 MSTORE PUSH1 0x20 ADD DUP3 DUP1 SLOAD PUSH2 0x2E0 SWAP1 PUSH2 0xAD2 JUMP JUMPDEST DUP1 ISZERO PUSH2 0x32B JUMPI DUP1 PUSH1 0x1F LT PUSH2 0x302 JUMPI PUSH2 0x100 DUP1 DUP4 SLOAD DIV MUL DUP4 MSTORE SWAP2 PUSH1 0x20 ADD SWAP2 PUSH2 0x32B JUMP JUMPDEST DUP3 ADD SWAP2 SWAP1 PUSH0 MSTORE PUSH1 0x20 PUSH0 KECCAK256 SWAP1 JUMPDEST DUP2 SLOAD DUP2 MSTORE SWAP1 PUSH1 0x1 ADD SWAP1 PUSH1 0x20 ADD DUP1 DUP4 GT PUSH2 0x30E JUMPI DUP3 SWAP1 SUB PUSH1 0x1F AND DUP3 ADD SWAP2 JUMPDEST POP POP POP POP POP DUP2 MSTORE PUSH1 0x20 ADD PUSH1 0x4 DUP3 ADD SLOAD DUP2 MSTORE POP POP SWAP1 POP DUP1 PUSH1 0x20 ADD MLOAD DUP2 PUSH1 0x40 ADD MLOAD DUP3 PUSH1 0x60 ADD MLOAD DUP4 PUSH1 0x80 ADD MLOAD SWAP5 POP SWAP5 POP SWAP5 POP SWAP5 POP POP SWAP2 SWAP4 POP SWAP2 SWAP4 JUMP JUMPDEST PUSH1 0x40 MLOAD DUP1 PUSH1 0xA0 ADD PUSH1 0x40 MSTORE DUP1 DUP7 DUP2 MSTORE PUSH1 0x20 ADD DUP6 DUP2 MSTORE PUSH1 0x20 ADD DUP5 DUP2 MSTORE PUSH1 0x20 ADD DUP4 DUP2 MSTORE PUSH1 0x20 ADD DUP3 DUP2 MSTORE POP PUSH0 DUP7 PUSH1 0x40 MLOAD PUSH2 0x39A SWAP2 SWAP1 PUSH2 0xA8F JUMP JUMPDEST SWAP1 DUP2 MSTORE PUSH1 0x20 ADD PUSH1 0x40 MLOAD DUP1 SWAP2 SUB SWAP1 KECCAK256 PUSH0 DUP3 ADD MLOAD DUP2 PUSH0 ADD SWAP1 DUP2 PUSH2 0x3BB SWAP2 SWAP1 PUSH2 0xC9F JUMP JUMPDEST POP PUSH1 0x20 DUP3 ADD MLOAD DUP2 PUSH1 0x1 ADD SWAP1 DUP2 PUSH2 0x3D1 SWAP2 SWAP1 PUSH2 0xC9F JUMP JUMPDEST POP PUSH1 0x40 DUP3 ADD MLOAD DUP2 PUSH1 0x2 ADD SWAP1 DUP2 PUSH2 0x3E7 SWAP2 SWAP1 PUSH2 0xC9F JUMP JUMPDEST POP PUSH1 0x60 DUP3 ADD MLOAD DUP2 PUSH1 0x3 ADD SWAP1 DUP2 PUSH2 0x3FD SWAP2 SWAP1 PUSH2 0xC9F JUMP JUMPDEST POP PUSH1 0x80 DUP3 ADD MLOAD DUP2 PUSH1 0x4 ADD SSTORE SWAP1 POP POP POP POP POP POP POP JUMP JUMPDEST PUSH0 DUP2 DUP1 MLOAD PUSH1 0x20 DUP2 ADD DUP3 ADD DUP1 MLOAD DUP5 DUP3 MSTORE PUSH1 0x20 DUP4 ADD PUSH1 0x20 DUP6 ADD KECCAK256 DUP2 DUP4 MSTORE DUP1 SWAP6 POP POP POP POP POP POP PUSH0 SWAP2 POP SWAP1 POP DUP1 PUSH0 ADD DUP1 SLOAD PUSH2 0x448 SWAP1 PUSH2 0xAD2 JUMP JUMPDEST DUP1 PUSH1 0x1F ADD PUSH1 0x20 DUP1 SWAP2 DIV MUL PUSH1 0x20 ADD PUSH1 0x40 MLOAD SWAP1 DUP2 ADD PUSH1 0x40 MSTORE DUP1 SWAP3 SWAP2 SWAP1 DUP2 DUP2 MSTORE PUSH1 0x20 ADD DUP3 DUP1 SLOAD PUSH2 0x474 SWAP1 PUSH2 0xAD2 JUMP JUMPDEST DUP1 ISZERO PUSH2 0x4BF JUMPI DUP1 PUSH1 0x1F LT PUSH2 0x496 JUMPI PUSH2 0x100 DUP1 DUP4 SLOAD DIV MUL DUP4 MSTORE SWAP2 PUSH1 0x20 ADD SWAP2 PUSH2 0x4BF JUMP JUMPDEST DUP3 ADD SWAP2 SWAP1 PUSH0 MSTORE PUSH1 0x20 PUSH0 KECCAK256 SWAP1 JUMPDEST DUP2 SLOAD DUP2 MSTORE SWAP1 PUSH1 0x1 ADD SWAP1 PUSH1 0x20 ADD DUP1 DUP4 GT PUSH2 0x4A2 JUMPI DUP3 SWAP1 SUB PUSH1 0x1F AND DUP3 ADD SWAP2 JUMPDEST POP POP POP POP POP SWAP1 DUP1 PUSH1 0x1 ADD DUP1 SLOAD PUSH2 0x4D4 SWAP1 PUSH2 0xAD2 JUMP JUMPDEST DUP1 PUSH1 0x1F ADD PUSH1 0x20 DUP1 SWAP2 DIV MUL PUSH1 0x20 ADD PUSH1 0x40 MLOAD SWAP1 DUP2 ADD PUSH1 0x40 MSTORE DUP1 SWAP3 SWAP2 SWAP1 DUP2 DUP2 MSTORE PUSH1 0x20 ADD DUP3 DUP1 SLOAD PUSH2 0x500 SWAP1 PUSH2 0xAD2 JUMP JUMPDEST DUP1 ISZERO PUSH2 0x54B JUMPI DUP1 PUSH1 0x1F LT PUSH2 0x522 JUMPI PUSH2 0x100 DUP1 DUP4 SLOAD DIV MUL DUP4 MSTORE SWAP2 PUSH1 0x20 ADD SWAP2 PUSH2 0x54B JUMP JUMPDEST DUP3 ADD SWAP2 SWAP1 PUSH0 MSTORE PUSH1 0x20 PUSH0 KECCAK256 SWAP1 JUMPDEST DUP2 SLOAD DUP2 MSTORE SWAP1 PUSH1 0x1 ADD SWAP1 PUSH1 0x20 ADD DUP1 DUP4 GT PUSH2 0x52E JUMPI DUP3 SWAP1 SUB PUSH1 0x1F AND DUP3 ADD SWAP2 JUMPDEST POP POP POP POP POP SWAP1 DUP1 PUSH1 0x2 ADD DUP1 SLOAD PUSH2 0x560 SWAP1 PUSH2 0xAD2 JUMP JUMPDEST DUP1 PUSH1 0x1F ADD PUSH1 0x20 DUP1 SWAP2 DIV MUL PUSH1 0x20 ADD PUSH1 0x40 MLOAD SWAP1 DUP2 ADD PUSH1 0x40 MSTORE DUP1 SWAP3 SWAP2 SWAP1 DUP2 DUP2 MSTORE PUSH1 0x20 ADD DUP3 DUP1 SLOAD PUSH2 0x58C SWAP1 PUSH2 0xAD2 JUMP JUMPDEST DUP1 ISZERO PUSH2 0x5D7 JUMPI DUP1 PUSH1 0x1F LT PUSH2 0x5AE JUMPI PUSH2 0x100 DUP1 DUP4 SLOAD DIV MUL DUP4 MSTORE SWAP2 PUSH1 0x20 ADD SWAP2 PUSH2 0x5D7 JUMP JUMPDEST DUP3 ADD SWAP2 SWAP1 PUSH0 MSTORE PUSH1 0x20 PUSH0 KECCAK256 SWAP1 JUMPDEST DUP2 SLOAD DUP2 MSTORE SWAP1 PUSH1 0x1 ADD SWAP1 PUSH1 0x20 ADD DUP1 DUP4 GT PUSH2 0x5BA JUMPI DUP3 SWAP1 SUB PUSH1 0x1F AND DUP3 ADD SWAP2 JUMPDEST POP POP POP POP POP SWAP1 DUP1 PUSH1 0x3 ADD DUP1 SLOAD PUSH2 0x5EC SWAP1 PUSH2 0xAD2 JUMP JUMPDEST DUP1 PUSH1 0x1F ADD PUSH1 0x20 DUP1 SWAP2 DIV MUL PUSH1 0x20 ADD PUSH1 0x40 MLOAD SWAP1 DUP2 ADD PUSH1 0x40 MSTORE DUP1 SWAP3 SWAP2 SWAP1 DUP2 DUP2 MSTORE PUSH1 0x20 ADD DUP3 DUP1 SLOAD PUSH2 0x618 SWAP1 PUSH2 0xAD2 JUMP JUMPDEST DUP1 ISZERO PUSH2 0x663 JUMPI DUP1 PUSH1 0x1F LT PUSH2 0x63A JUMPI PUSH2 0x100 DUP1 DUP4 SLOAD DIV MUL DUP4 MSTORE SWAP2 PUSH1 0x20 ADD SWAP2 PUSH2 0x663 JUMP JUMPDEST DUP3 ADD SWAP2 SWAP1 PUSH0 MSTORE PUSH1 0x20 PUSH0 KECCAK256 SWAP1 JUMPDEST DUP2 SLOAD DUP2 MSTORE SWAP1 PUSH1 0x1 ADD SWAP1 PUSH1 0x20 ADD DUP1 DUP4 GT PUSH2 0x646 JUMPI DUP3 SWAP1 SUB PUSH1 0x1F AND DUP3 ADD SWAP2 JUMPDEST POP POP POP POP POP SWAP1 DUP1 PUSH1 0x4 ADD SLOAD SWAP1 POP DUP6 JUMP JUMPDEST PUSH0 PUSH1 0x40 MLOAD SWAP1 POP SWAP1 JUMP JUMPDEST PUSH0 DUP1 REVERT JUMPDEST PUSH0 DUP1 REVERT JUMPDEST PUSH0 DUP1 REVERT JUMPDEST PUSH0 DUP1 REVERT JUMPDEST PUSH0 PUSH1 0x1F NOT PUSH1 0x1F DUP4 ADD AND SWAP1 POP SWAP2 SWAP1 POP JUMP JUMPDEST PUSH32 0x4E487B7100000000000000000000000000000000000000000000000000000000 PUSH0 MSTORE PUSH1 0x41 PUSH1 0x4 MSTORE PUSH1 0x24 PUSH0 REVERT JUMPDEST PUSH2 0x6D2 DUP3 PUSH2 0x68C JUMP JUMPDEST DUP2 ADD DUP2 DUP2 LT PUSH8 0xFFFFFFFFFFFFFFFF DUP3 GT OR ISZERO PUSH2 0x6F1 JUMPI PUSH2 0x6F0 PUSH2 0x69C JUMP JUMPDEST JUMPDEST DUP1 PUSH1 0x40 MSTORE POP POP POP JUMP JUMPDEST PUSH0 PUSH2 0x703 PUSH2 0x673 JUMP JUMPDEST SWAP1 POP PUSH2 0x70F DUP3 DUP3 PUSH2 0x6C9 JUMP JUMPDEST SWAP2 SWAP1 POP JUMP JUMPDEST PUSH0 PUSH8 0xFFFFFFFFFFFFFFFF DUP3 GT ISZERO PUSH2 0x72E JUMPI PUSH2 0x72D PUSH2 0x69C JUMP JUMPDEST JUMPDEST PUSH2 0x737 DUP3 PUSH2 0x68C JUMP JUMPDEST SWAP1 POP PUSH1 0x20 DUP2 ADD SWAP1 POP SWAP2 SWAP1 POP JUMP JUMPDEST DUP3 DUP2 DUP4 CALLDATACOPY PUSH0 DUP4 DUP4 ADD MSTORE POP POP POP JUMP JUMPDEST PUSH0 PUSH2 0x764 PUSH2 0x75F DUP5 PUSH2 0x714 JUMP JUMPDEST PUSH2 0x6FA JUMP JUMPDEST SWAP1 POP DUP3 DUP2 MSTORE PUSH1 0x20 DUP2 ADD DUP5 DUP5 DUP5 ADD GT ISZERO PUSH2 0x780 JUMPI PUSH2 0x77F PUSH2 0x688 JUMP JUMPDEST JUMPDEST PUSH2 0x78B DUP5 DUP3 DUP6 PUSH2 0x744 JUMP JUMPDEST POP SWAP4 SWAP3 POP POP POP JUMP JUMPDEST PUSH0 DUP3 PUSH1 0x1F DUP4 ADD SLT PUSH2 0x7A7 JUMPI PUSH2 0x7A6 PUSH2 0x684 JUMP JUMPDEST JUMPDEST DUP2 CALLDATALOAD PUSH2 0x7B7 DUP5 DUP3 PUSH1 0x20 DUP7 ADD PUSH2 0x752 JUMP JUMPDEST SWAP2 POP POP SWAP3 SWAP2 POP POP JUMP JUMPDEST PUSH0 PUSH1 0x20 DUP3 DUP5 SUB SLT ISZERO PUSH2 0x7D5 JUMPI PUSH2 0x7D4 PUSH2 0x67C JUMP JUMPDEST JUMPDEST PUSH0 DUP3 ADD CALLDATALOAD PUSH8 0xFFFFFFFFFFFFFFFF DUP2 GT ISZERO PUSH2 0x7F2 JUMPI PUSH2 0x7F1 PUSH2 0x680 JUMP JUMPDEST JUMPDEST PUSH2 0x7FE DUP5 DUP3 DUP6 ADD PUSH2 0x793 JUMP JUMPDEST SWAP2 POP POP SWAP3 SWAP2 POP POP JUMP JUMPDEST PUSH0 DUP2 MLOAD SWAP1 POP SWAP2 SWAP1 POP JUMP JUMPDEST PUSH0 DUP3 DUP3 MSTORE PUSH1 0x20 DUP3 ADD SWAP1 POP SWAP3 SWAP2 POP POP JUMP JUMPDEST DUP3 DUP2 DUP4 MCOPY PUSH0 DUP4 DUP4 ADD MSTORE POP POP POP JUMP JUMPDEST PUSH0 PUSH2 0x839 DUP3 PUSH2 0x807 JUMP JUMPDEST PUSH2 0x843 DUP2 DUP6 PUSH2 0x811 JUMP JUMPDEST SWAP4 POP PUSH2 0x853 DUP2 DUP6 PUSH1 0x20 DUP7 ADD PUSH2 0x821 JUMP JUMPDEST PUSH2 0x85C DUP2 PUSH2 0x68C JUMP JUMPDEST DUP5 ADD SWAP2 POP POP SWAP3 SWAP2 POP POP JUMP JUMPDEST PUSH0 DUP2 SWAP1 POP SWAP2 SWAP1 POP JUMP JUMPDEST PUSH2 0x879 DUP2 PUSH2 0x867 JUMP JUMPDEST DUP3 MSTORE POP POP JUMP JUMPDEST PUSH0 PUSH1 0x80 DUP3 ADD SWAP1 POP DUP2 DUP2 SUB PUSH0 DUP4 ADD MSTORE PUSH2 0x897 DUP2 DUP8 PUSH2 0x82F JUMP JUMPDEST SWAP1 POP DUP2 DUP2 SUB PUSH1 0x20 DUP4 ADD MSTORE PUSH2 0x8AB DUP2 DUP7 PUSH2 0x82F JUMP JUMPDEST SWAP1 POP DUP2 DUP2 SUB PUSH1 0x40 DUP4 ADD MSTORE PUSH2 0x8BF DUP2 DUP6 PUSH2 0x82F JUMP JUMPDEST SWAP1 POP PUSH2 0x8CE PUSH1 0x60 DUP4 ADD DUP5 PUSH2 0x870 JUMP JUMPDEST SWAP6 SWAP5 POP POP POP POP POP JUMP JUMPDEST PUSH2 0x8E0 DUP2 PUSH2 0x867 JUMP JUMPDEST DUP2 EQ PUSH2 0x8EA JUMPI PUSH0 DUP1 REVERT JUMPDEST POP JUMP JUMPDEST PUSH0 DUP2 CALLDATALOAD SWAP1 POP PUSH2 0x8FB DUP2 PUSH2 0x8D7 JUMP JUMPDEST SWAP3 SWAP2 POP POP JUMP JUMPDEST PUSH0 DUP1 PUSH0 DUP1 PUSH0 PUSH1 0xA0 DUP7 DUP9 SUB SLT ISZERO PUSH2 0x91A JUMPI PUSH2 0x919 PUSH2 0x67C JUMP JUMPDEST JUMPDEST PUSH0 DUP7 ADD CALLDATALOAD PUSH8 0xFFFFFFFFFFFFFFFF DUP2 GT ISZERO PUSH2 0x937 JUMPI PUSH2 0x936 PUSH2 0x680 JUMP JUMPDEST JUMPDEST PUSH2 0x943 DUP9 DUP3 DUP10 ADD PUSH2 0x793 JUMP JUMPDEST SWAP6 POP POP PUSH1 0x20 DUP7 ADD CALLDATALOAD PUSH8 0xFFFFFFFFFFFFFFFF DUP2 GT ISZERO PUSH2 0x964 JUMPI PUSH2 0x963 PUSH2 0x680 JUMP JUMPDEST JUMPDEST PUSH2 0x970 DUP9 DUP3 DUP10 ADD PUSH2 0x793 JUMP JUMPDEST SWAP5 POP POP PUSH1 0x40 DUP7 ADD CALLDATALOAD PUSH8 0xFFFFFFFFFFFFFFFF DUP2 GT ISZERO PUSH2 0x991 JUMPI PUSH2 0x990 PUSH2 0x680 JUMP JUMPDEST JUMPDEST PUSH2 0x99D DUP9 DUP3 DUP10 ADD PUSH2 0x793 JUMP JUMPDEST SWAP4 POP POP PUSH1 0x60 DUP7 ADD CALLDATALOAD PUSH8 0xFFFFFFFFFFFFFFFF DUP2 GT ISZERO PUSH2 0x9BE JUMPI PUSH2 0x9BD PUSH2 0x680 JUMP JUMPDEST JUMPDEST PUSH2 0x9CA DUP9 DUP3 DUP10 ADD PUSH2 0x793 JUMP JUMPDEST SWAP3 POP POP PUSH1 0x80 PUSH2 0x9DB DUP9 DUP3 DUP10 ADD PUSH2 0x8ED JUMP JUMPDEST SWAP2 POP POP SWAP3 SWAP6 POP SWAP3 SWAP6 SWAP1 SWAP4 POP JUMP JUMPDEST PUSH0 PUSH1 0xA0 DUP3 ADD SWAP1 POP DUP2 DUP2 SUB PUSH0 DUP4 ADD MSTORE PUSH2 0xA00 DUP2 DUP9 PUSH2 0x82F JUMP JUMPDEST SWAP1 POP DUP2 DUP2 SUB PUSH1 0x20 DUP4 ADD MSTORE PUSH2 0xA14 DUP2 DUP8 PUSH2 0x82F JUMP JUMPDEST SWAP1 POP DUP2 DUP2 SUB PUSH1 0x40 DUP4 ADD MSTORE PUSH2 0xA28 DUP2 DUP7 PUSH2 0x82F JUMP JUMPDEST SWAP1 POP DUP2 DUP2 SUB PUSH1 0x60 DUP4 ADD MSTORE PUSH2 0xA3C DUP2 DUP6 PUSH2 0x82F JUMP JUMPDEST SWAP1 POP PUSH2 0xA4B PUSH1 0x80 DUP4 ADD DUP5 PUSH2 0x870 JUMP JUMPDEST SWAP7 SWAP6 POP POP POP POP POP POP JUMP JUMPDEST PUSH0 DUP2 SWAP1 POP SWAP3 SWAP2 POP POP JUMP JUMPDEST PUSH0 PUSH2 0xA69 DUP3 PUSH2 0x807 JUMP JUMPDEST PUSH2 0xA73 DUP2 DUP6 PUSH2 0xA55 JUMP JUMPDEST SWAP4 POP PUSH2 0xA83 DUP2 DUP6 PUSH1 0x20 DUP7 ADD PUSH2 0x821 JUMP JUMPDEST DUP1 DUP5 ADD SWAP2 POP POP SWAP3 SWAP2 POP POP JUMP JUMPDEST PUSH0 PUSH2 0xA9A DUP3 DUP5 PUSH2 0xA5F JUMP JUMPDEST SWAP2 POP DUP2 SWAP1 POP SWAP3 SWAP2 POP POP JUMP JUMPDEST PUSH32 0x4E487B7100000000000000000000000000000000000000000000000000000000 PUSH0 MSTORE PUSH1 0x22 PUSH1 0x4 MSTORE PUSH1 0x24 PUSH0 REVERT JUMPDEST PUSH0 PUSH1 0x2 DUP3 DIV SWAP1 POP PUSH1 0x1 DUP3 AND DUP1 PUSH2 0xAE9 JUMPI PUSH1 0x7F DUP3 AND SWAP2 POP JUMPDEST PUSH1 0x20 DUP3 LT DUP2 SUB PUSH2 0xAFC JUMPI PUSH2 0xAFB PUSH2 0xAA5 JUMP JUMPDEST JUMPDEST POP SWAP2 SWAP1 POP JUMP JUMPDEST PUSH0 DUP2 SWAP1 POP DUP2 PUSH0 MSTORE PUSH1 0x20 PUSH0 KECCAK256 SWAP1 POP SWAP2 SWAP1 POP JUMP JUMPDEST PUSH0 PUSH1 0x20 PUSH1 0x1F DUP4 ADD DIV SWAP1 POP SWAP2 SWAP1 POP JUMP JUMPDEST PUSH0 DUP3 DUP3 SHL SWAP1 POP SWAP3 SWAP2 POP POP JUMP JUMPDEST PUSH0 PUSH1 0x8 DUP4 MUL PUSH2 0xB5E PUSH32 0xFFFFFFFFFFFFFFFFFFFFFFFFFFFFFFFFFFFFFFFFFFFFFFFFFFFFFFFFFFFFFFFF DUP3 PUSH2 0xB23 JUMP JUMPDEST PUSH2 0xB68 DUP7 DUP4 PUSH2 0xB23 JUMP JUMPDEST SWAP6 POP DUP1 NOT DUP5 AND SWAP4 POP DUP1 DUP7 AND DUP5 OR SWAP3 POP POP POP SWAP4 SWAP3 POP POP POP JUMP JUMPDEST PUSH0 DUP2 SWAP1 POP SWAP2 SWAP1 POP JUMP JUMPDEST PUSH0 PUSH2 0xBA3 PUSH2 0xB9E PUSH2 0xB99 DUP5 PUSH2 0x867 JUMP JUMPDEST PUSH2 0xB80 JUMP JUMPDEST PUSH2 0x867 JUMP JUMPDEST SWAP1 POP SWAP2 SWAP1 POP JUMP JUMPDEST PUSH0 DUP2 SWAP1 POP SWAP2 SWAP1 POP JUMP JUMPDEST PUSH2 0xBBC DUP4 PUSH2 0xB89 JUMP JUMPDEST PUSH2 0xBD0 PUSH2 0xBC8 DUP3 PUSH2 0xBAA JUMP JUMPDEST DUP5 DUP5 SLOAD PUSH2 0xB2F JUMP JUMPDEST DUP3 SSTORE POP POP POP POP JUMP JUMPDEST PUSH0 SWAP1 JUMP JUMPDEST PUSH2 0xBE4 PUSH2 0xBD8 JUMP JUMPDEST PUSH2 0xBEF DUP2 DUP5 DUP5 PUSH2 0xBB3 JUMP JUMPDEST POP POP POP JUMP JUMPDEST JUMPDEST DUP2 DUP2 LT ISZERO PUSH2 0xC12 JUMPI PUSH2 0xC07 PUSH0 DUP3 PUSH2 0xBDC JUMP JUMPDEST PUSH1 0x1 DUP2 ADD SWAP1 POP PUSH2 0xBF5 JUMP JUMPDEST POP POP JUMP JUMPDEST PUSH1 0x1F DUP3 GT ISZERO PUSH2 0xC57 JUMPI PUSH2 0xC28 DUP2 PUSH2 0xB02 JUMP JUMPDEST PUSH2 0xC31 DUP5 PUSH2 0xB14 JUMP JUMPDEST DUP2 ADD PUSH1 0x20 DUP6 LT ISZERO PUSH2 0xC40 JUMPI DUP2 SWAP1 POP JUMPDEST PUSH2 0xC54 PUSH2 0xC4C DUP6 PUSH2 0xB14 JUMP JUMPDEST DUP4 ADD DUP3 PUSH2 0xBF4 JUMP JUMPDEST POP POP JUMPDEST POP POP POP JUMP JUMPDEST PUSH0 DUP3 DUP3 SHR SWAP1 POP SWAP3 SWAP2 POP POP JUMP JUMPDEST PUSH0 PUSH2 0xC77 PUSH0 NOT DUP5 PUSH1 0x8 MUL PUSH2 0xC5C JUMP JUMPDEST NOT DUP1 DUP4 AND SWAP2 POP POP SWAP3 SWAP2 POP POP JUMP JUMPDEST PUSH0 PUSH2 0xC8F DUP4 DUP4 PUSH2 0xC68 JUMP JUMPDEST SWAP2 POP DUP3 PUSH1 0x2 MUL DUP3 OR SWAP1 POP SWAP3 SWAP2 POP POP JUMP JUMPDEST PUSH2 0xCA8 DUP3 PUSH2 0x807 JUMP JUMPDEST PUSH8 0xFFFFFFFFFFFFFFFF DUP2 GT ISZERO PUSH2 0xCC1 JUMPI PUSH2 0xCC0 PUSH2 0x69C JUMP JUMPDEST JUMPDEST PUSH2 0xCCB DUP3 SLOAD PUSH2 0xAD2 JUMP JUMPDEST PUSH2 0xCD6 DUP3 DUP3 DUP6 PUSH2 0xC16 JUMP JUMPDEST PUSH0 PUSH1 0x20 SWAP1 POP PUSH1 0x1F DUP4 GT PUSH1 0x1 DUP2 EQ PUSH2 0xD07 JUMPI PUSH0 DUP5 ISZERO PUSH2 0xCF5 JUMPI DUP3 DUP8 ADD MLOAD SWAP1 POP JUMPDEST PUSH2 0xCFF DUP6 DUP3 PUSH2 0xC84 JUMP JUMPDEST DUP7 SSTORE POP PUSH2 0xD66 JUMP JUMPDEST PUSH1 0x1F NOT DUP5 AND PUSH2 0xD15 DUP7 PUSH2 0xB02 JUMP JUMPDEST PUSH0 JUMPDEST DUP3 DUP2 LT ISZERO PUSH2 0xD3C JUMPI DUP5 DUP10 ADD MLOAD DUP3 SSTORE PUSH1 0x1 DUP3 ADD SWAP2 POP PUSH1 0x20 DUP6 ADD SWAP5 POP PUSH1 0x20 DUP2 ADD SWAP1 POP PUSH2 0xD17 JUMP JUMPDEST DUP7 DUP4 LT ISZERO PUSH2 0xD59 JUMPI DUP5 DUP10 ADD MLOAD PUSH2 0xD55 PUSH1 0x1F DUP10 AND DUP3 PUSH2 0xC68 JUMP JUMPDEST DUP4 SSTORE POP JUMPDEST PUSH1 0x1 PUSH1 0x2 DUP9 MUL ADD DUP9 SSTORE POP POP POP JUMPDEST POP POP POP POP POP POP JUMP INVALID LOG2 PUSH5 0x6970667358 0x22 SLT KECCAK256 GT LOG1 INVALID MSIZE ORIGIN 0xC5 0xAF GASPRICE 0xC3 PUSH12 0xBD1908CFC9222D98DBAE4645 0xF8 0xE6 0x2F 0xE6 0xC 0xD5 JUMP JUMPDEST PUSH12 0x864736F6C634300081A0033 "
				},
				"gasEstimates": {
					"creation": {
						"codeDepositCost": "698400",
						"executionCost": "732",
						"totalCost": "699132"
					},
					"external": {
						"addPatientRecord(string,string,string,string,uint256)": "infinite",
						"getPatientRecord(string)": "infinite",
						"patientRecords(string)": "infinite"
					}
				},
				"methodIdentifiers": {
					"addPatientRecord(string,string,string,string,uint256)": "1b23cc71",
					"getPatientRecord(string)": "11bd30a1",
					"patientRecords(string)": "d2303dad"
				}
			},
			"storageLayout": {
				"storage": [
					{
						"astId": 17,
						"contract": "createContractPatient.sol:Patient",
						"label": "patientRecords",
						"offset": 0,
						"slot": "0",
						"type": "t_mapping(t_string_memory_ptr,t_struct(PatientRecord)12_storage)"
					}
				],
				"types": {
					"t_mapping(t_string_memory_ptr,t_struct(PatientRecord)12_storage)": {
						"encoding": "mapping",
						"key": "t_string_memory_ptr",
						"label": "mapping(string => struct Patient.PatientRecord)",
						"numberOfBytes": "32",
						"value": "t_struct(PatientRecord)12_storage"
					},
					"t_string_memory_ptr": {
						"encoding": "bytes",
						"label": "string",
						"numberOfBytes": "32"
					},
					"t_string_storage": {
						"encoding": "bytes",
						"label": "string",
						"numberOfBytes": "32"
					},
					"t_struct(PatientRecord)12_storage": {
						"encoding": "inplace",
						"label": "struct Patient.PatientRecord",
						"members": [
							{
								"astId": 3,
								"contract": "createContractPatient.sol:Patient",
								"label": "recordID",
								"offset": 0,
								"slot": "0",
								"type": "t_string_storage"
							},
							{
								"astId": 5,
								"contract": "createContractPatient.sol:Patient",
								"label": "patientName",
								"offset": 0,
								"slot": "1",
								"type": "t_string_storage"
							},
							{
								"astId": 7,
								"contract": "createContractPatient.sol:Patient",
								"label": "diagnosis",
								"offset": 0,
								"slot": "2",
								"type": "t_string_storage"
							},
							{
								"astId": 9,
								"contract": "createContractPatient.sol:Patient",
								"label": "treatment",
								"offset": 0,
								"slot": "3",
								"type": "t_string_storage"
							},
							{
								"astId": 11,
								"contract": "createContractPatient.sol:Patient",
								"label": "date",
								"offset": 0,
								"slot": "4",
								"type": "t_uint256"
							}
						],
						"numberOfBytes": "160"
					},
					"t_uint256": {
						"encoding": "inplace",
						"label": "uint256",
						"numberOfBytes": "32"
					}
				}
			},
			"userdoc": {
				"kind": "user",
				"methods": {},
				"version": 1
			}
		}
	}
}